:100000000C940E020C9455020C9455020C9455025B
:100010000C9455020C9455020C9455020C94550204
:100020000C9455020C9455020C947E1C0C944D1D9E
:100030000C94C0170C9455020C9455020C94550264
:100040000C9455020C9455020C9455020C945502D4
:100050000C9455020C9419180C9455020C945502EA
:100060000C9455020C9455020C9455020C945502B4
:100070000C9455020C9455020C9455020C945502A4
:100080000C9455020C9455020C9455020C94550294
:100090000C9455020C9455020C9455020C94550284
:1000A0000C9455020C9455020C945502750D750D67
:1000B000A70DA70DF40D120E330F330F1D0EB20E48
:1000C000C30EC30E230F330F330F2C0FD30FD30FD9
:1000D000E50FE50FDC0FE50FE50FE50FD30FD30FAD
:1000E000E10FE50FE50FE10FBA1DE11DD91EE11D7E
:1000F000D91E2D1E501ED91EA71EB61E3800270061
:1001000026002500240023003E0000002E000F00E2
:10011000150006000A0009002F0000002D0016003F
:10012000110017000B00070030000000E4001D0064
:1001300019001A0010000500E700650031004F00AB
:100140005100520050002C002800025135004A0096
:100150004E004B004D00E100E00002512A00330048
:1001600014000D000E001B00A900AA00015104009C
:100170001200080018000C004C0000002B00340096
:100180003600370013001C00E200000029001E00AA
:100190001F002000210022003D0000004600450015
:1001A0004400430042004100400000000100010003
:1001B0000100010001000100010000000100010038
:1001C000F200F300F1000100010000000100FC005A
:1001D000FA00F900FB000100010001000100F0003D
:1001E000EE00ED00EF000100010000000100010041
:1001F00001000100010001000100000001000100F8
:1002000001000100010001000000010001000100E7
:10021000010001000100010049000000010001008F
:1002200001000100010001000100000001003A008E
:100230003B003C003D003E003F00000029001E0046
:100240001F002000210022003D0000002B00340090
:100250003600370013001C00E2000000010004001B
:100260001200080018000C004C0000002A003300A7
:1002700014000D000E001B000100010035004D00B0
:100280004E0052004A00E100E00001003100500041
:10029000510052004F002C0028000100E4001D0016
:1002A00019001A0010000500E300A8002D00160038
:1002B000110017000B000700300000002E000F0097
:1002C000150006000A0009002F0000003800270072
:1002D00026002500240023003E0000001A036D00C4
:1002E000630064006F0078004E006F0076003200FB
:1002F0003000320030000000160344006100760038
:1003000065004D0063004500770061006E0000004D
:100310000403090409023B00020100A0FA090400D9
:100320000001030101000921110100012240000721
:1003300005810308000A0904010001030000000907
:100340002111010001227B000705820320000A120F
:100350000110010000000855F0000001000102003A
:100360000105010902A10185020901A10005091980
:10037000012908150025019508750181020501096B
:100380003009311581257F950275088106093815D8
:1003900081257F950175088106050C0A38021581B3
:1003A000257F950175088106C0C005010980A1015E
:1003B000850319012AB700150126B70095017510AC
:1003C0008100C0050C0901A101850419012AA002C0
:1003D000150126A002950175108100C005010906CE
:1003E000A101050719E029E7150025019508750108
:1003F00081029501750881010507190029FF150083
:1004000026FF009506750881000508190129059544
:100410000575019102950175039101C011241FBE5C
:10042000CFEFDAE0DEBFCDBF04B603FE27C0809178
:100430006C0290916D02A0916E02B0916F028730B4
:10044000904BA740B04BD1F410926C0210926D0209
:1004500010926E0210926F0214BE84B7877F84BF21
:100460000FB6F894A8958091600088618093600031
:10047000109260000FBEE0E0F8E3099511E0A0E003
:10048000B1E0EEEFFEE302C005900D92AA38B1078D
:10049000D9F722E0AAE8B1E001C01D92AC36B2075C
:1004A000E1F70E94B9190C947D1F0C94000081E0C3
:1004B000089581E008950C94590208950C945D020A
:1004C0001F93CF93DF9300D000D01F92CDB7DEB73C
:1004D00049835A836B833091B90189819A813111A3
:1004E00014C0662359F0222349F00E940C15182FDE
:1004F000682F89819A810E94B51403C00E94E0147C
:10050000182F69817A81812F04C00E940C1569819E
:100510007A810F900F900F900F900F90DF91CF91F5
:100520001F910C942303FC01262F4081518162818D
:10053000738184810C946002CF93DF93EC0160E0BF
:100540000E949302BE01DF91CF910C945E020E9443
:1005500030050C946A050C94660508950E94C10F3D
:100560000E94AD022FE78AE196E021508040904042
:10057000E1F700C000000C943F180F931F93CF9336
:10058000DF938C0161E00E949302EC01B8010E94AC
:100590005B028823F1F1B801CE010E946F09882324
:1005A000C1F1B801CE010E94C109882391F1B801BF
:1005B000CE010E94EC0A882361F1F8018281882330
:1005C00009F1CB358DE5D807C1F050F4C115FCE534
:1005D000DF0781F0CF3DDC45A9F40E94171719C051
:1005E000CC35EDE5DE0761F0CD35DD4559F40E94EF
:1005F0009F1508C00E94AE020CC00E94A81502C040
:100600000E94AB15C801DF91CF911F910F910C94FF
:10061000570280E0DF91CF911F910F9108950895C7
:100620000C940F0381E008950C941203CF93C82F0C
:100630000E9410038C2F0E941403CF91089580E034
:1006400090E008950895E72FF0E09AE0899FE00D8B
:10065000F11D112483E0EE0FFF1F8A95E1F7E60FED
:10066000F11DEE0FFF1FE450FF4F85919491089507
:10067000880F991FFC01E452FD4F859194910895D4
:10068000CF93DF930E9423030E945804EC0181154D
:10069000904508F041C0C11580E4D80708F0D1C0EA
:1006A000C83ED10510F5C03ED10508F0FDC0C83ADE
:1006B000D10578F4C53AD10508F0A2C0C130D10502
:1006C00009F4F2C008F4EEC0C430D10508F0ECC063
:1006D000E9C0CF3BD10508F49BC0C03CD10508F46C
:1006E000E1C0CE01805C91099EC0C11590E2D9079E
:1006F00058F4C11521E0D20708F0D6C0CD3ED1058F
:1007000008F4D0C0D065D0C0C11580E3D80708F088
:100710008EC0CE019F7087C0C11595E5D90708F03E
:1007200043C0C11524E5D20708F0A2C0C11582E577
:10073000D80708F5C11591E5D90708F085C0CE01A5
:1007400074E0969587957A95E1F783709C2F937066
:1007500021E030E002C0220F331F9A95E2F73C6897
:10076000382BCF70C695C69580E2C89FE001112452
:10077000C22BD32B99C09E01237033278C2F8695D3
:100780008695C115D34508F064C0C1E0D0E002C031
:10079000CC0FDD1F2A95E2F720E2829FC0011124D1
:1007A000C82BD92BDC6880C0C11529E5D207A0F47D
:1007B000C11588E5D80708F060C0C11596E5D907CE
:1007C00008F070C08C2F0E94EC048F71C82FD0E00D
:1007D000DC2FCC27D06268C0C1152AE5D20708F407
:1007E00051C0CE0190568115904208F05BC08D2F0C
:1007F0008F710E94EC04DD27D0628F71D82B54C01A
:10080000C55AD0E0CD5BDE4FC881D0E0D0644CC08B
:10081000C85AD0E0CC0FDD1FCB5EDE4F0990D881E7
:10082000C02DD46441C00E943803EC013DC0CE010C
:100830009927D3FF03C0EC01D86C36C0EC01D06C13
:1008400033C0DF70D06A30C0DC2FCC27C16FD06AD4
:100850002BC0C1E0D0E002C0CC0FDD1F2A95E2F72B
:1008600020E2829FC0011124C82BD92BDA681CC05A
:10087000DC2FCC27C46FD06A17C0DC2FCC27C06F09
:10088000D06A12C08C2F8F700E94EC0494E0D69531
:10089000C7959A95E1F7CF70D0E0DC2FCC27D069CF
:1008A000C82B02C0C0E0D0E0CE01DF91CF91089507
:1008B0008238910569F1B0F48133910509F46DC076
:1008C00048F48932910509F463C08A32910509F42C
:1008D00069C008958533910509F455C089339105A0
:1008E000B9F00895833E910569F138F4803E910591
:1008F000B1F0823E910509F10895863E9105A9F176
:10090000873E9105B9F1843E910509F064C023C08A
:100910002091450220FD4FC021FD4DC008958091DA
:10092000450280FD44C08091460280FF44C0809112
:10093000450284FD42C083EE4DC08091450282FF96
:1009400038C0F5CF8091450282FD33C080914602C8
:1009500080FD31C0ECCF8091460281FF32C0809192
:10096000450284FD2AC087EE35C08091450283FF91
:1009700026C0F5CF8091450283FD21C080914602BB
:1009800081FD1FC0ECCF8091450285FD1CC01DC0BC
:100990008091450285FD19C016C08091450286FDF3
:1009A00016C017C08091450286FD13C010C089E3B0
:1009B00011C082EE0FC080EE0DC080E00BC086EE4D
:1009C00009C084EE07C089E205C085E303C08AE25E
:1009D00001C081E390E008959091450292FF0DC01F
:1009E000282F2871283019F4877F846006C0282FAB
:1009F0002471243011F48B7F886093FF0DC0282F61
:100A00002871283119F4877E846106C0282F24714B
:100A1000243111F48B7E88612091460220FF0DC0A5
:100A2000382F3871383019F4877F816006C0382F2D
:100A30003171313011F48E7F886021FF0DC0282F75
:100A40002871283119F4877E816106C0282F217111
:100A5000213111F48E7E886194FD877E089508957A
:100A60000E946F16811102C00E9417170E947A1609
:100A7000809339020E948216909346028093450229
:100A80000E942F050E947E16682F70E080E090E0A3
:100A90000E94B71360912402709125028091260272
:100AA000909127020C94EF13E82FF0E0EF5AFD4FDE
:100AB00080810895089580E58A95F1F7089500C032
:100AC00008950C945B0508950C9463050C946405DB
:100AD0000C9463050C946805F894E82FE295EF7088
:100AE000F0E031A1282F2F7081E090E001C0880F45
:100AF0002A95EAF7982F9095932391A392A1892B99
:100B000082A378940895CF93DF93C6E4D1E08991CE
:100B10000E946C0581E0CE34D807C9F7CEE4D1E05D
:100B200089910E946C0581E0C835D807C9F7E7E4D0
:100B3000F2E0A1E5B2E081E592E011921D928E17FC
:100B40009F07D9F78AE00E943206DF91CF910C947B
:100B5000A7028F929F92AF92BF92CF92DF92EF92B5
:100B6000FF920F931F93CF93DF9306E411E0C0E051
:100B7000D0E0912CEE24E394F12C91E5A92E92E0A3
:100B8000B92E6801D8018C91F894E82FE295EF70A6
:100B9000F0E021A18F70A70102C0440F551F8A9574
:100BA000E2F7CA01922F982B91A392A180958923F5
:100BB00082A378940E945F05C7010C2E01C0880FA4
:100BC0000A94EAF7582F282F2095E7E4F2E06EE424
:100BD00071E0812C4081DB013D91BD01832F829525
:100BE0008F7090E0DC0190968C9190E03F7002C095
:100BF000959587953A95E2F780FD03C0842F852B64
:100C000002C0842F8223481719F08083882483949C
:100C10003196AE16BF06F1F60F5F1F4FF6018081C9
:100C20000E946C050E94610598282196C830D10564
:100C300009F0A7CF292D4AE061E572E087E492E050
:100C40000E9433060E94AB02892DDF91CF911F9144
:100C50000F91FF90EF90DF90CF90BF90AF909F905B
:100C60008F9008950895FF920F931F93CF93DF9372
:100C70008C01F62ED72FC42F222349F081E08093D8
:100C80008E010E94F21790938D0180938C018091C8
:100C90008E018823C1F080918C0190918D010E947A
:100CA0000A18069780F0EF2DFD2FD8014C2F50E049
:100CB000CD01801B910B841795071CF48D918193B6
:100CC000F7CF10928E01DF91CF911F910F91FF907E
:100CD00008958091950180FF0BC06091050185E02A
:100CE000689FB001112475956795759567952BC020
:100CF00081FF09C06091050185E0689FB001112462
:100D00007595679520C082FF07C06091050185E059
:100D1000689FB001112417C0909194019923D1F0DC
:100D200060910401961788F72091050185E0289FBE
:100D300090011124929FA001939F500D112470E007
:100D4000CA010E940D1F6038710540F461157105DC
:100D500019F406C065E070E0862F08958FE70895C6
:100D600081E008958091950180FF08C060910101A4
:100D700070E0759567957595679521C081FF06C0F0
:100D80006091010170E07595679519C082FF04C0FC
:100D90006091010170E010C090919301992399F046
:100DA000609100019617A0F780910101899FC00111
:100DB000112470E00E940D1F6038710540F4611528
:100DC000710519F406C061E070E0862F08958FE781
:100DD000089581E008958D3E21F40E946906819571
:100DE00004C08E3E29F40E946906809399010895FB
:100DF0008F3E21F40E946906819504C0803F29F44A
:100E00000E946906809398010895893F19F40E9411
:100E1000B20605C08A3F31F40E94B20681958093E4
:100E20009A0108958B3F21F40E94B206819504C077
:100E30008C3F29F40E94B20680939B0108959FE0A5
:100E4000980F983078F421E030E0A90102C0440FF7
:100E5000551F9A95E2F7CA0190919701892B8093CB
:100E6000970108958D3F21F48091950181600BC019
:100E70008E3F21F480919501826005C08F3F29F457
:100E80008091950184608093950108958D3E39F499
:100E90009091990197FF35C01092990159C08E3EEB
:100EA00029F4909199011916BCF32BC090919801E7
:100EB0008F3E29F497FF25C01092980149C0803FCA
:100EC00019F41916CCF31DC090919A01893F29F4A9
:100ED0001916BCF410929A013BC08A3F19F497FF8F
:100EE00010C0F8CF8B3F39F490919B0197FF09C058
:100EF00010929B012DC08C3F21F490919B011916FB
:100F0000BCF39FE0980F983080F421E030E0A90115
:100F100002C0440F551F9A95E2F7CA01809590913F
:100F2000970189238093970113C08D3F21F480910D
:100F300095018E7F0BC08E3F21F4809195018D7FAE
:100F400005C08F3F29F4809195018B7F8093950197
:100F500080919801811106C080919901811102C090
:100F60001092940180919A01811106C080919B0199
:100F7000811102C01092930108950E94F2172091EE
:100F80009801211104C020919901222321F090930E
:100F900092018093910120919A01211104C0209126
:100FA0009B01222321F09093900180938F0186E989
:100FB00091E00C94390BEF92FF920F931F93CF9314
:100FC000DF9300D000D000D0CDB7DEB786E0E6E9F1
:100FD000F1E0DE01119601900D928A95E1F7E09023
:100FE0009801F090990100919A0110919B01109243
:100FF00098011092990110929A0110929B01E110B0
:1010000003C0FF2009F45DC080919101909192018D
:101010000E940A18AC0190919401992339F0209113
:10102000060130E02417350758F04BC02091070126
:101030008AE0289F900111242417350718F041C039
:101040009F3F19F09F5F90939401EE2061F00E9402
:1010500069061E1414F09FEF01C091E0989F902D37
:10106000112490939801FF2061F00E9469061F14DB
:1010700014F09FEF01C091E0989F902D1124909360
:101080009901309198013323E1F0209199012223B5
:10109000C1F045EB3403C0011124992319F090935A
:1010A000980103C081E08093980135EB2303C001D0
:1010B0001124992319F09093990103C081E0809342
:1010C0009901011103C0112309F45DC080918F01C2
:1010D000909190010E940A18AC019091930199237C
:1010E00039F02091020130E02417350758F04BC049
:1010F000209103018AE0289F9001112424173507CD
:1011000018F041C09F3F19F09F5F90939301002317
:1011100061F00E94B206101614F09FEF01C091E03A
:10112000989F902D112490939A01112361F00E94B1
:10113000B206111614F09FEF01C091E0989F902D18
:10114000112490939B0130919A013323E1F0209177
:101150009B012223C1F045EB3403C00111249923E4
:1011600019F090939A0103C081E080939A0135EBC6
:101170002303C0011124992319F090939B0103C00C
:1011800081E080939B018091980181110BC0809137
:101190009901811107C080919A01811103C080914A
:1011A0009B0181110E94BD07EB82FC820D831E838F
:1011B00086E0FE013196A6E9B1E001900D928A9594
:1011C000E1F726960FB6F894DEBF0FBECDBFDF91D4
:1011D000CF911F910F91FF90EF900895E6E9F1E014
:1011E00086E0DF011D928A95E9F710929401109232
:1011F00093011092950108950F931F93CF93DF935E
:10120000C42FD22FFC0182818823C9F040939E0114
:101210000E94F21790939D0180939C0180E28C0FB5
:10122000883008F057C0C77081E001C0880FCA95A8
:10123000EAF7DF91CF911F910F910C94340D8091BB
:101240009E01481330C080919C0190919D010E94A5
:101250000A18883C910538F510E21D0FCD17B9F03A
:1012600080E28C0F883040F4C77081E001C0880FA5
:10127000CA95EAF70E943B0D183028F581E09D2FB2
:10128000977001C0880F9A95EAF70E94340D802F5D
:101290000E942B0D1830F0F4D77081E001C0880F48
:1012A000DA95EAF70AC080E28C0F883098F4C770AC
:1012B00081E001C0880FCA95EAF7DF91CF911F91B5
:1012C0000F910C943B0D802FDF91CF911F910F91C7
:1012D0000C942B0DDF91CF911F910F9108950F93D7
:1012E0009C01CB01243F4CE5340731F188F4293DC2
:1012F000FCE53F07D9F02A3D4CE5340779F1283D5C
:101300003C45A9F506E221EE41EE68ED7CE52BC0F7
:10131000263FFCE53F07E1F0A8F0273F3C4539F5C3
:1013200007E225EE46EE67EF7CE51DC007E225EEFD
:1013300045EE69ED7CE517C006E221EE40EE64EF74
:101340007CE511C007E225EE44EE65EF7CE50BC0BD
:1013500006E221EE42EE66EF7CE505C008E221E000
:1013600045EE6AED7CE50E94FC0880E008C0FC01C7
:101370008281882319F010929E0101C081E00F91B3
:101380000895CF93DF93EC01FB018281882309F458
:101390001FC1C230FCE5DF0708F41BC1C6319CE564
:1013A000D90738F09E012B5F3C452930310508F004
:1013B00010C10E9482169093460280934502C0316C
:1013C000ECE5DE0709F4C3C008F041C0C8308CE585
:1013D000D80709F49AC0F0F4C430ECE5DE0709F44C
:1013E00087C068F4C2308CE5D80709F477C0C330F1
:1013F000DC4509F0E3C080914502826076C0C630CA
:10140000ECE5DE0709F46EC008F07BC08091450270
:1014100088606BC0CC308CE5D80709F485C068F4CF
:10142000CA30ECE5DE0709F474C008F079C00E9408
:10143000C10F80914502806858C0CE308CE5D80736
:1014400009F476C008F07FC0809145028BC0CC3F84
:10145000ECE5DE0709F44FC018F5C3318CE5D80779
:1014600009F47DC078F4C131ECE5DE0709F473C0FE
:10147000C231DC4509F0A2C00E94C10F8091450233
:101480008F7733C0C5318CE5D80709F472C008F4F2
:1014900086C0CB3FDC4509F091C0809146023EC03A
:1014A000C115FDE5DF0709F45FC058F4CE3F9CE5A8
:1014B000D90709F444C008F43FC080914602826015
:1014C0002DC0C230FDE5DF0709F475C008F45DC02A
:1014D000C330DD4509F072C080E06EC080914502E6
:1014E000816003C08091450280618093450266C09F
:1014F0008091450211C0809146028260809346022D
:101500005DC0809145028062F0CF80914502806489
:10151000ECCF8091450288608460E7CF8160EECF98
:10152000809145028E7FE1CF809145028D7FDDCF96
:1015300080914502877FD9CF8091460218C0809163
:1015400046028D7FDBCF809145028F7ECECF80918A
:1015500045028F7DCACF809145028F7BC6CF809197
:101560004502877F8B7FC1CF809146028D7F8E7F22
:10157000C5CF8091450282FB222720F991E0922776
:1015800090FB82F990FB83F9B0CF80914602982FAF
:10159000909591708E7F892B90FB81F9AFCF0E943F
:1015A000C10F8091450287FB222720F991E0922705
:1015B00090FB87F99ACF81E00E941917809145022C
:1015C000909146020E9493160E94C10F80E001C0D4
:1015D00081E0DF91CF910895CF93DF9386319C45D1
:1015E00041F5EB010E94AE15982F8A8120910801E8
:1015F00030910901882379F09A7A81E009F480E03A
:1016000080939F01911102C069E201C065E3C901A5
:101610000E9460170AC080919F01811102C069E297
:1016200001C065E3C9010E9462170E94001680E0B4
:1016300001C081E0DF91CF9108959093A50180933F
:10164000A4010895E091A401F091A501309721F043
:101650000190F081E02D099480E00895E091A401CB
:10166000F091A501309721F00280F381E02D0994DB
:101670000895E091A401F091A501309739F022E09E
:10168000DC012C930480F581E02D099408952091CC
:10169000A2013091A3012817390771F09093A3019B
:1016A0008093A201E091A401F091A501309721F06F
:1016B0000680F781E02D099408952091A0013091D2
:1016C000A1012817390771F09093A1018093A0011F
:1016D000E091A401F091A501309721F00084F185FB
:1016E000E02D099408950E94FE176093B501709350
:1016F000B6018093B7019093B8016093B1017093E4
:10170000B2018093B3019093B401089585B78068C6
:1017100085BF85B7806885BF089581E008950C94E2
:101720008D0B08950C94910B0C94910B0C94940BCD
:101730000C94910B0C94980B0C94910B0E94860BBB
:101740008DE696E10E9450180E949C0B0C949A0B17
:101750000E94920B0C94910B0E94E9170E94830542
:101760000C94960B9F92AF92BF92CF92DF92EF9222
:10177000FF920F931F93CF93DF93CDB7DEB72A97D6
:101780000FB6F894DEBF0FBECDBF0E94A905811130
:101790000E94730B87EAA82E81E0B82E00E010E0CB
:1017A000902E802F0E945405D82EF501C1905F0124
:1017B000C826B1F40F5F1F4F0A30110589F78FEF6C
:1017C00089838A831B820E94F2178160782F9D8310
:1017D0008C8349815A816B818D810E94500C2FC06E
:1017E0008091390281FD0E945A05E12CFF24F39477
:1017F0008C2D8F21F1F00E948F0B882399F0EE82BF
:101800009F82DF2081E009F480E088870E94F21740
:101810008160782F9A8789874E815F8168858A8564
:101820000E94500CF801E955FE4F8081F826F082A5
:1018300006C0E394FF0CF8E0EF12DACFBBCF0E94B2
:10184000DB070E94220B9091A6018917B9F00E9434
:10185000220B8093A6012A960FB6F894DEBF0FBE26
:10186000CDBFDF91CF911F910F91FF90EF90DF904F
:10187000CF90BF90AF909F900C9416032A960FB60E
:10188000F894DEBF0FBECDBFDF91CF911F910F91B6
:10189000FF90EF90DF90CF90BF90AF909F90089512
:1018A000DF92EF92FF920F931F93CF93DF93CDB709
:1018B000DEB72B970FB6F894DEBF0FBECDBFF42E68
:1018C000052F162FE72ED82E61110E94CE15FE018E
:1018D000319686E0DF011D928A95E9F77E2D4F2D26
:1018E000502F612F8D2D9E810E947A122B960FB65C
:1018F000F894DEBF0FBECDBFDF91CF911F910F9146
:10190000FF90EF90DF900895FC01808191810E940B
:101910004E150895CF93882309F450C0C82F8CEF3B
:101920008C0F813AD0F46C2F8091080190910901BD
:101930000E942A17882349F06C2F8091080190910A
:1019400009010E9462170E9400166C2F8091080105
:10195000909109010E9460170CC080E28C0F8830C2
:1019600058F4C77081E001C0880FCA95EAF70E9459
:10197000B115CF910C940016EBE5EC0FE33040F479
:10198000F0E0EA57FE4F808190E0CF910C94470B36
:10199000E8E5EC0FE73150F4F0E0EE0FFF1FE85AF6
:1019A000FE4F80819181CF910C945D0BCD3E30F044
:1019B0008C2F0E94EB06CF910C94BD07CF91089518
:1019C000882389F19CEF980F913A40F4682F809119
:1019D0000801909109010E9462170DC090E2980FD2
:1019E000983058F4877091E001C0990F8A95EAF712
:1019F000892F0E94B7150C9400169BE5980F933021
:101A000020F480E090E00C94470B98E5980F973114
:101A100020F480E090E00C945D0B8D3E20F00E945D
:101A200046070C94BD0708951F93CF93DF93182F9B
:101A3000EB010E948A0C209741F08FEC97E0019710
:101A4000F1F700C000002197F6CF812FDF91CF91F1
:101A50001F910C94E00C893319F060E070E002C033
:101A600060E570E00C94140D882321F00E94B115FC
:101A70000C9400160895882321F00E94B7150C9449
:101A800000160895CF92DF92EF92FF920F931F936B
:101A9000CF93DF937C01062FC72FFC01D2811581E4
:101AA00012951F700E948615882399F0DD2389F016
:101AB0008C2F807F803421F080E2800F883048F0C6
:101AC00082E00E9450160E94861591E0D82ED926F9
:101AD00001C0D12CCC2EC2948FE0C8228C2D90E076
:101AE000FC01EA5AFF4F0C94211F8C2F807FCF708E
:101AF000882311F0C295C07FDD2399F0CC2309F42F
:101B00008DC180E2800F883010F0011104C08C2F4D
:101B10000E94B11503C08C2F0E94C1150E940016AF
:101B20007DC1802F0E94E00CCC2309F49CC180E28F
:101B3000800F883010F0011104C08C2F0E94B7155F
:101B400003C08C2F0E94C7150E9400168CC18C2FD9
:101B5000807FCF70803211F0C295C07F002319F0D2
:101B60000130C9F022C0DD2371F0112341F01130A2
:101B700031F40E94E1158C2B0E94E91574C10E947A
:101B8000E1158C2B1DC0112319F0113009F46BC124
:101B90000E94F61525C0DD2321F0163008F063C140
:101BA0000EC0153008F05FC11BC0DD2361F01123AA
:101BB00031F0F701858180FF31C18F7085838C2FD3
:101BC0000E94340D50C1112359F0093309F037C177
:101BD000FFEF23EF81E0F15020408040E1F72DC17D
:101BE0008C2F0E943B0D3FC18C2F8695869583706C
:101BF00019F0813061F037C1DD2321F0802F9C2F57
:101C0000937002C080E090E00E94470B34C1DD2356
:101C100021F0802F9C2F937002C080E090E00E9402
:101C20005D0B29C1802FDD2319F00E94EB0602C055
:101C30000E9446070E94BD071EC18C2F837009F0C9
:101C400045C0D11114C1402F429546954770440FAD
:101C5000440F602F6F70862F90E0A0E0B0E0042E5C
:101C600004C0880F991FAA1FBB1F0A94D2F704FF54
:101C700010C00FE010E020E030E004C0000F111FA2
:101C8000221F331F4A95D2F7009510952095309565
:101C900003C000E010E09801C695C695C370BC0172
:101CA000CD01602B712B822B932BC23049F058F45D
:101CB000C13019F00E94CB13DAC00E94B913D7C00B
:101CC0000E94DD13D4C00E94B713D1C0DD2319F0E8
:101CD0008C2F817001C08695882309F4C8C0402FDD
:101CE000429546954770440F440F602F6F70862FC2
:101CF00090E0A0E0B0E0042E04C0880F991FAA1F56
:101D0000BB1F0A94D2F704FF10C00FE010E020E0E0
:101D100030E004C0000F111F221F331F4A95D2F775
:101D2000009510952095309503C000E010E09801D3
:101D3000C695C695C370BC01CD01602B712B822B5B
:101D4000932BC23049F058F4C13019F00E9490141E
:101D50008EC00E947E148BC00E94A21488C00E9474
:101D6000F11385C0CF70DD2339F08C2F0E9417143A
:101D7000802F0E94340D7BC0802F0E943B0D8C2F42
:101D80000E94381474C0023F01F128F4003F41F072
:101D9000013FA1F03FC0033FF9F0043F39F13AC0E1
:101DA000DD2341F0153008F05EC08C2F8F710E944A
:101DB0005D1459C0163008F056C0F7CFDD2339F056
:101DC0008C2F8F710E9417144EC0DD23C9F38C2F06
:101DD0008F710E94381447C0DD2329F08C2F8F713A
:101DE0000E94021440C00E94FD133DC0DD2349F053
:101DF000CF718C2F0E94171463E08C2F0E94351630
:101E000032C081E00E945016123068F182E00E94D8
:101E1000501629C0DD2331F0112391F2802F0E944A
:101E20008A0C21C0112399F2093349F49FEFE3EFA3
:101E3000F1E09150E040F040E1F700C00000802F59
:101E40000E94E00C10C04C2F4F70602FC7010E9401
:101E50001F030E9428130FC04C2F4F70602FC70123
:101E60000E94220308C088EF8C0D843020F40E9469
:101E7000220B0E941603DD20C9F00E94821580FD0E
:101E800015C0F70112820E947C150E941714C70129
:101E90000E94770F0E947C15DF91CF911F910F91C7
:101EA000FF90EF90DF90CF900C943814DF91CF919A
:101EB0001F910F91FF90EF90DF90CF9008950F93B7
:101EC0001F93CF93DF93EC01688179818A810E940F
:101ED00059158C010E94B4140E94A513B801CE01BB
:101EE0000E94420DDF91CF911F910F910895CF93E2
:101EF000DF93EC01988189812B813C81232B31F088
:101F00008F3F31F481E09F3F19F403C081E001C0AD
:101F100080E080FD19C0CE010E94BD0281110CC07D
:101F20000E948615882381F08A81882369F082E0E7
:101F3000DF91CF910C945016CE010E945F0FCE011D
:101F4000DF91CF910C949C02DF91CF91089580E0B6
:101F500090E00E94470B80E090E00E945D0B0E94A1
:101F6000CE150E94DE150E9400160E94EE080C9409
:101F7000BD0780910801909109010E9464170C949B
:101F8000A70F0E94BE150C94B90FE92FE295EF70D0
:101F90004E2F50E0FA013297EE30F105B0F4EA59D5
:101FA000FF4F0C94211F803F91F018F4883E68F495
:101FB0000EC0843F51F40BC0883E48F0813F29F4A5
:101FC00006C093FB882780F9089580E0089581E09A
:101FD00008950E944E150E94C50F0895CF93DF9378
:101FE00000D000D01F92CDB7DEB70F900F900F90AA
:101FF0000F900F90DF91CF910895CF93DF9300D092
:1020000000D000D0CDB7DEB726960FB6F894DEBF6D
:102010000FBECDBFDF91CF9108951F93CF93DF9374
:10202000C091BA0116E08091BB01C81799F0D0E0C9
:102030001C9FF0011D9FF00D1124E454FE4F4081C0
:10204000518162817381848195810E94FD0F219667
:10205000C770E9CFDF91CF911F9108954091EC01B6
:102060005091ED016091EE017091EF018091F001CE
:102070009091F1010C94FD0F0F931F93CF93DF9379
:102080008091F10182958F7009F05DC08091EE0121
:10209000882309F458C08091BA011091BB01609166
:1020A000EC017091ED01C091EF01D091F00191E050
:1020B0006F3F09F090E0292F06E0811709F443C033
:1020C000209721F07F3F21F030E003C031E001C0D4
:1020D000322F90E030FD34C0089FF001099FF00DD1
:1020E0001124DF01A454BE4F11963C911197371370
:1020F00027C03C91361324C012963C91129731119F
:102100001FC013964D915C9114974C1B5D0B483C7E
:102110005105B0F48091F1018F7080618093F101DD
:10212000EF53FE4F80818F70806180838CEE91E051
:102130000E94770FDF91CF911F910F910C940D109A
:1021400001968770BACFDF91CF911F910F910895BB
:102150009F92AF92BF92CF92DF92EF92FF920F9336
:102160001F93CF93DF93CDB7DEB761970FB6F89487
:10217000DEBF0FBECDBF8C0185E0F801DE011D96EC
:1021800001900D928A95E1F7F80140815181E2803A
:102190009091EC016091ED012091EF013091F001FF
:1021A0002115310531F06F3F31F481E09F3F19F483
:1021B00003C081E001C080E0F82FF1709F2E80FD08
:1021C00046C1F801A380B4808CEEC82E81E0D82EE1
:1021D000F090EE01F501E21BF30BFF2009F4DFC0E4
:1021E0008091F101E83CF10508F09BC0282F207F89
:1021F00009F052C0561313C0491311C0FE2CE11050
:102200000EC08F7080618093F1010E942E10C60174
:102210000E94770F8091F101F801858358C1AB28A6
:1022200031F05F3F31F481E04F3F19F403C081E0AA
:1022300001C080E080FD03C081E08E2502C080E007
:1022400090E0F82FF170FF2E80FF1CC08091BA0142
:102250002091BB0136E0821709F417C190E0389F46
:10226000F001399FF00D1124E454FE4F61815613A3
:1022700006C06081461303C06281E61203C0019666
:102280008770E9CFFE2CEE2009F421C18091F10185
:1022900081608093F1015AC0561306C0491304C0EF
:1022A000E11002C0F8019FC04D875E878D859E8535
:1022B0000E94E90F882379F1EE2069F12091F10164
:1022C000822F82958F7090E0029774F08091EC01DC
:1022D0009091ED0198878F831986BB86AA862C87FB
:1022E000CE0107960E94770F86E0F801ACEEB1E0D0
:1022F00001900D928A95E1F70E943C100E942E10E9
:102300000DC0561729F14D875E878D859E850E94E9
:10231000E90F81112CC0C8010E94770FFF24F394AC
:10232000D6C0282F207F69F77A2DB98AA88A6E2D0A
:1023300089890E94EE0F8CEE91E00E94770F86E073
:10234000F60111928A95E9F70E942E10F12CBFC078
:102350004913D9CFE110D7CFF8018583C8010E9476
:10236000770F86E0F60111928A95E9F7B0C0EE206A
:1023700091F22091F101822F82958F7090E0029767
:102380000CF4B2CF8091EC019091ED019A83898396
:102390001B82BD82AC822E83CE010196A3CFE83C86
:1023A000F10508F047C0FE2CEE2009F4B4CF561317
:1023B00030C049132EC02091F10120FD21C0822F91
:1023C00082958F70482F50E041155105C9F0F801F2
:1023D00025834F30510541F08F5F982F9295907F64
:1023E000822F8F70892B8583C8010E94770F86E02A
:1023F000F801ACEEB1E001900D928A95E1F742C090
:1024000086E0F801ACEEB1E001900D928A95E1F71B
:102410005EC04D875E878D859E850E94E90F811184
:1024200063CF8091F10181608093F101C8010E9426
:10243000770F4DC07A2DB98AA88A6E2D89890E949E
:10244000EE0F86E0F60111928A95E9F71BC0EE20A7
:1024500009F461CF4D875E878D859E850E94E90FC7
:10246000F82E882309F457CF86E0F801ACEEB1E0EE
:1024700001900D928A95E1F78CEE91E00E94840C18
:102480000E943C100E942E1022C04D875E878D85D1
:102490009E850E944E15292F22952F70223028F4F8
:1024A0009F7039F0811105C00BC0243028F49F7053
:1024B00049F4805E883020F0C8010E94770F9F2C7D
:1024C000F92C05C0F8019581907F99F7F9CF8F2DF0
:1024D00061960FB6F894DEBF0FBECDBFDF91CF91EE
:1024E0001F910F91FF90EF90DF90CF90BF90AF9032
:1024F0009F9008951F93CF93DF93CDB7DEB72C97AE
:102500000FB6F894DEBF0FBECDBF4F8358876987E3
:102510007A878B879C87CE0107960E94A810882314
:10252000D1F09F8188852A853B85232B31F08F3F11
:1025300031F481E09F3F19F403C081E001C080E0E5
:1025400080FD47C04F81588569857A858B859C853C
:102550000E94FD0F3EC086E0FE013796DE01119617
:1025600001900D928A95E1F7FF81E8856A857B8568
:102570006115710531F0EF3F31F481E0FF3F19F44F
:1025800003C081E001C080E080FD23C02091BB0139
:1025900030E0C9010196877099274091BA0150E057
:1025A00084179507F1F1F983EA837D836C8396E0C4
:1025B000929FD001939FB00D1124A454BE4FFE01F1
:1025C000319601900D929A95E1F78093BB010E949C
:1025D0000D1016E08091BA019091BB01891771F13D
:1025E000189FC001112484549E4F0E94A810882374
:1025F00029F1E091BA011E9FF0011124E454FE4F2D
:102600004081518162817381848195810E94FD0F97
:102610008091BA0190E00196877099278093BA0162
:10262000D9CF0E94C10F1092BB011092BA01ECEEFB
:10263000F1E086E0DF011D928A95E9F72C960FB64E
:10264000F894DEBF0FBECDBFDF91CF911F910895EB
:10265000EF92FF920F931F93CF93DF938C01892BFF
:1026600009F46CC0F12CEE24E394E8012196F80102
:102670008491843740F4843008F051C0813081F077
:10268000823019F15BC0853709F444C0A8F19CE79A
:10269000980F903708F052C08F770E94E00C41C02D
:1026A0000E5F1F4FFE01849190E2980F983050F416
:1026B0008770FE2D01C0FF0F8A95EAF78F2F0E94C9
:1026C000D11514C00E948A0C2DC00E5F1F4FFE0151
:1026D000849190E2980F983060F48770FE2D01C0CD
:1026E000FF0F8A95EAF78F2F0E94D7150E940016D8
:1026F00019C00E94E00C16C00E5F1F4FFE01C4916E
:10270000CC2381F08FEC97E00197F1F700C0000037
:10271000C150F6CF0E5F1F4FFE01F49003C00E9420
:102720008A0C8E018F2D882309F49FCFEFECF7E000
:102730003197F1F700C000008150F5CFDF91CF91C4
:102740001F910F91FF90EF900895089508950C94B4
:10275000A6130C94A7130E94A913609328027093E8
:10276000290280932A0290932B020C94A70F0C94B9
:10277000AB130F931F93009128021091290220910F
:102780002A0230912B02602B712B822B932B1F91ED
:102790000F910C94AB130F931F930091280210918B
:1027A000290220912A0230912B0260237123822377
:1027B00093231F910F910C94AB130F931F930091D0
:1027C00028021091290220912A0230912B026027C1
:1027D0007127822793271F910F910C94AB130C94B0
:1027E000A6130E94EF136093240270932502809336
:1027F0002602909327020C94A70F60E070E0CB01B3
:102800000C94F1130F931F9341E050E060E070E0EF
:102810008A019B0104C0000F111F221F331F8A95DC
:10282000D2F7C901B8011F910F910C94F1130F93C6
:102830001F9341E050E060E070E004C0440F551F7A
:10284000661F771F8A95D2F7809124029091250206
:10285000A0912602B09127028A019B01082B192B17
:102860002A2B3B2BC901B8011F910F910C94F11336
:102870000F931F9341E050E060E070E004C0440F0C
:10288000551F661F771F8A95D2F740955095609522
:1028900070958091240290912502A0912602B0911A
:1028A00027028A019B01082319232A233B23C901FC
:1028B000B8011F910F910C94F1130F931F9341E0F6
:1028C00050E060E070E004C0440F551F661F771FA2
:1028D0008A95D2F78091240290912502A091260238
:1028E000B09127028A019B01082719272A273B2735
:1028F000C901B8011F910F910C94F1130F931F930D
:102900000091240210912502209126023091270285
:10291000602B712B822B932B1F910F910C94F11331
:102920000F931F93009124021091250220912602FB
:102930003091270260237123822393231F910F91EB
:102940000C94F1130F931F93009124021091250210
:102950002091260230912702602771278227932732
:102960001F910F910C94F113089528E0929F800D10
:102970001124E82FE695E695E695877051E001C0B1
:10298000550F8A95EAF785E0E89FF0011124EE5093
:10299000FE4F20E030E070E04081CB01022E02C00B
:1029A000969587950A94E2F781708195842785230F
:1029B000842781932F5F3F4F2530310569F70895B4
:1029C00028E0929F800D1124682F66956695669584
:1029D000982F977085E0689FB001112440E050E087
:1029E00080E0FB01E40FF51FEE50FE4F208130E048
:1029F000092E02C0369527950A94E2F721703327F5
:102A0000042E01C0220F0A94EAF7822B4F5F5F4F1A
:102A10004530510531F70895BF92CF92DF92EF9282
:102A2000FF920F931F93CF93DF938C01C0902402EA
:102A3000D0902502E0902602F09027028091280293
:102A400090912902A0912A02B0912B02C82AD92A7A
:102A5000EA2AFB2ACFE1D0E0D701C6010C2E04C040
:102A6000B695A795979587950A94D2F780FD04C0EF
:102A7000219790F7B12C07C0BC2EB8018C2F0E9473
:102A800040030197A9F38B2DDF91CF911F910F91F7
:102A9000FF90EF90DF90CF90BF900895CF93DF939A
:102AA000EC010E940C15BE010E944003DF91CF9102
:102AB00008951F93CF93DF93EB019091B901992370
:102AC00021F0CB010E944E1513C0882349F0CB01A1
:102AD0000E940C15182F682FCE010E94B51404C057
:102AE000CB010E94E014182FBE01812F0E944003E9
:102AF000DF91CF911F91089580912C028595859546
:102B00008595089580912C028770089590912C02EC
:102B1000977081E009F480E008959091460292FB5D
:102B2000222720F9281751F080FB92F99093460252
:102B300080914502909146020C94931608958091DD
:102B4000460282FB882780F991E089270C948D1535
:102B500081E00C948D1580E00C948D1580913802E5
:102B6000089590913802892B8093380208958095BA
:102B70009091380289238093380208951092380288
:102B8000089590913702892B80933702089580959C
:102B9000909137028923809337020895109237026B
:102BA000089590913602892B80933602089580957E
:102BB000909136028923809336020895109236024E
:102BC000089580912D02089508950C94E4150C94B5
:102BD000E5159091460292FD08C090912D0298173C
:102BE00021F080932D020C94E715089580912D0219
:102BF000882329F010922D0280E00C94E7150895A7
:102C0000E0910801F0910901809138028083E09100
:102C10000801F0910901908180913702892B80830E
:102C2000E0910801F0910901908180913602892B91
:102C3000808380912D02882381F0E0910801F0913A
:102C400009019081892B808380910801909109016D
:102C50000E941E1781110E94F61580910801909123
:102C600009010C942E0B0C94E4159091460292FDF0
:102C700010C098E0899F90011124262B20932C02EC
:102C80000E94171480912C028595859585950C944A
:102C900033160C94171410922C0280E00C94331607
:102CA00020912C028095822380932C02982F97707C
:102CB00041F430E0482F082E000C550B241735073F
:102CC00021F49091460292FF07C0859585958595E0
:102CD0000E9438140C944B16089580E0089580E00B
:102CE00090E00E94431F21E08A3E9E4F09F020E0C1
:102CF000822F089582E090E00C943B1F83E090E0E7
:102D00000C943B1FCF9384E090E00E943B1FC82FA0
:102D100082E290E00E943B1F2C2F30E0A901582B4B
:102D2000CA01CF910895CF93C92F682F84E090E016
:102D30000E94491F6C2F82E290E0CF910C94491FB2
:102D4000AB01BC018FE090E00C945B1FAB01BC01B8
:102D500083E190E00C945B1F60E070E0CB010C9489
:102D6000A61660E070E0CB010E94A0160C94AC1691
:102D70006AEE7EEF80E090E00E94671F60E082E0F4
:102D800090E00E94491F60E083E090E00E94491FAC
:102D9000109228021092290210922A0210922B02FD
:102DA00060E084E090E00E94491F60E082E290E0F1
:102DB0000E94491F60E085E090E00E94491F60E0AA
:102DC00086E090E00E94491F6FEF87E090E00E944C
:102DD000491F40E050E0BA0188E090E00E945B1F8C
:102DE00060E08DE090E00E94491F40E050E0BA01B1
:102DF00088E190E00E945B1F60E087E190E00E9424
:102E0000491F40E050E0BA018CE190E00E945B1F56
:102E100060E070E080E290E00E94671F40E050E0D8
:102E2000BA0188E190E00E945B1F0C94B1160C94EB
:102E3000B816682F8EE090E00C94491FFC01329682
:102E400097E080E0915029F021912223D9F38F5F00
:102E5000F9CF0895662349F0FC0132960896219136
:102E6000621729F0E817F907D1F780E0089581E0AB
:102E700008959C01FC0132969FEF80E04191461736
:102E800089F09F3F19F4411101C0982F8F5F863060
:102E9000A9F79F3F39F0F901E90FF11D97FDFA9568
:102EA0006283089508959C012A5F3F4FFC0142818F
:102EB000461301C01282019682179307B9F708954D
:102EC0000C9439170C945317029626E0FC011192CA
:102ED0002A95E9F7089508950C946B170C946B17D5
:102EE000CF930E946E170E94A9050E946C17C0E044
:102EF0008C2F0E945405811104C0CF5FCA30C1F7E6
:102F000001C081E0CF9108950C946B170C94841745
:102F100080916302843049F10E94861780E00E940C
:102F2000160310923A0220E488E190E00FB6F8947C
:102F3000A895809360000FBE2093600083B7817FC7
:102F4000846083BF83B7816083BF7894889583B79B
:102F50008E7F83BF0FB6F894A8958091600088613A
:102F600080936000109260000FBE08950C946B1760
:102F70000E94C10F0E94220B0E9416030C94B617E8
:102F80001F920F920FB60F9211248F939F93AF93BE
:102F9000BF9380913A02811113C080915B0290919E
:102FA0005C02A0915D02B0915E024196A11DB11D2F
:102FB00080935B0290935C02A0935D02B0935E02EB
:102FC000BF91AF919F918F910F900FBE0F901F9067
:102FD000189582E084BD93E095BD9DE797BD8093F1
:102FE0006E0008952FB7F89480915B0290915C0277
:102FF000A0915D02B0915E022FBF08952FB7F894A3
:1030000060915B0270915C0280915D0290915E0222
:103010002FBF08959C014FB7F89480915B02909167
:103020005C02A0915D02B0915E024FBF821B930BC8
:10303000089578941F920F920FB60F9211248F93D8
:103040009F93AF93BF9380915B0290915C02A0919C
:103050005D02B0915E020196A11DB11D80935B02DD
:1030600090935C02A0935D02B0935E02BF91AF911A
:103070009F918F910F900FBE0F901F90189587E72B
:1030800097E790930108809300089AE088E10FB6D3
:10309000F894A895809360000FBE90936000FFCFD6
:1030A00090938B0180938A01089580914302089543
:1030B000CF93DF9300D01F92CDB7DEB7909163021C
:1030C000943019F589837B836A8382E08093E900D9
:1030D0008FEF9091E800815095FD06C09AE69A9591
:1030E000F1F700C08111F5CF8091E80085FF0DC098
:1030F00040E050E063E070E0CE0101960E94721A59
:103100008091E8008E778093E8000F900F900F90E9
:10311000DF91CF910895BC0184E00C945818BC0154
:1031200083E00C94581822E02093E9002FEF3091AF
:10313000E800215035FD06C03AE63A95F1F700C0A7
:103140002111F5CF2091E80025FF0BC040E050E0B1
:1031500066E070E00E94721A8091E8008E7780939A
:10316000E8000895CF93DF9321E02093E9002FEF4B
:103170003091E800215035FD06C03AE63A95F1F766
:1031800000C02111F5CF2091E80025FF14C0EC010B
:1031900040E050E068E070E00E94721A8091E80020
:1031A0008E778093E80088E0FE01ABE3B2E0019007
:1031B0000D928A95E1F7DF91CF9108958091620297
:1031C000811109C00E94031C0E94601C8091E200D2
:1031D00084608093E2000895109262020895089539
:1031E0000895089542E061EC81E00E947C1B42E278
:1031F00061EC82E00C947C1B80916502833009F4C1
:1032000060C030F4813071F0823009F499C00895C3
:103210008A3009F485C08B3009F46BC0893009F01D
:10322000A7C020C080916402813A09F0A1C08091BA
:10323000E800877F8093E80080916802909169029E
:10324000892B21F468E08BE392E003C060E080E02A
:1032500090E070E00E94BD1A8091E8008B77809327
:10326000E800089580916402813209F081C0809164
:10327000680290916902029708F07AC08091E80094
:10328000877F8093E8008091E80082FD05C08091EF
:1032900063028111F8CF6CC02091F3008091F2009D
:1032A00090E0922B029729F48091F1008B7F81307E
:1032B00021F48091F100809343028091E8008B77A4
:1032C00053C080916402813A09F052C08091680233
:1032D00090916902892B09F04BC08091E800877FAB
:1032E0008093E8008091E80080FFFCCF809114017A
:1032F00036C0809164028132D9F580916802909144
:103300006902892BA9F58091E800877F8093E80006
:103310000E94B11B80916602809314010C94C10F2E
:1033200080916402813221F58091E800877F80934B
:10333000E8000E94B11B80916702809344020895C7
:1033400080916402813AA1F48091E800877F8093A4
:10335000E8008091E80080FFFCCF809144028093D8
:10336000F1008091E8008E778093E8000C94B11B07
:10337000089584B7877F84BF0FB6F894A89580918D
:103380006000886180936000109260000FBE90E042
:1033900080E80FB6F89480936100909361000FBEAF
:1033A0000E949E0B0E94031C0E94601C8091E20000
:1033B00084608093E20078940E94F21E0E94AC0B1D
:1033C0008AE091E00E941D0B809163028530A9F490
:1033D00080916302853079F40E94881780916102A0
:1033E0008823B1F30E947017882391F30E945D1A1D
:1033F0000E94C10FEDCF0E94B8170E94B20B0E942D
:10340000A80BE2CF0C94041A292F3327233031055F
:10341000C9F060F42130310581F02230310509F026
:1034200044C08BE390E024E133E043C02132310516
:10343000E1F02232310549F138C082E190E02FE419
:1034400033E037C099278130910549F028F0029781
:1034500061F5ECEDF2E005C0E0E1F3E002C0E8EF79
:10346000F2E0849190E09F0124C06115710541F064
:1034700061307105D1F489E090E02FE333E019C0A9
:1034800089E090E026E233E014C06115710541F057
:103490006130710551F48BE790E021E633E009C01B
:1034A00080E490E02CED33E004C080E090E020E088
:1034B00030E0FA0131832083089519BC82E089BD90
:1034C00009B400FEFDCF8091D8008F7D8093D80095
:1034D0008091E00082608093E0008091E00081FDB7
:1034E000FCCF0895CF92DF92EF92FF920F931F933C
:1034F000CF93DF93EC018B017A010E94D01B8111E5
:1035000033C0E114F10439F0F70180819181081B87
:10351000190BC80FD91FC12CD12C0115110519F198
:103520008091E80085FD16C08091E8008E77809339
:10353000E800E114F10449F0F70180819181C80E9F
:10354000D91ED182C08285E00FC00E94D01B882383
:1035500021F30AC089918093F10001501109FFEF16
:10356000CF1ADF0ADACF80E0DF91CF911F910F9160
:10357000FF90EF90DF90CF90089520916A023091F4
:103580006B022617370748F06115710539F4209151
:10359000E8002E772093E80001C0B901FC0120E08B
:1035A0006115710579F1809163028823F1F185300D
:1035B000F1F18091E80083FD3CC08091E80082FD3C
:1035C0002EC08091E80080FFEBCF2091F300809126
:1035D000F20090E0922B6115710551F08830910551
:1035E00038F421912093F100615071090196F3CFD5
:1035F00021E0089709F020E08091E8008E77809321
:10360000E800CECF2111CFCF0AC08091630288237A
:1036100061F0853061F08091E80083FD0AC08091FF
:10362000E80082FFF2CF80E0089582E0089583E011
:10363000089581E0089520916A0230916B02261767
:10364000370748F06115710539F42091E8002E77AD
:103650002093E80001C0B901FC0120E0611571056B
:1036600091F180916302882309F440C0853009F408
:103670003FC08091E80083FD3DC08091E80082FD5D
:103680002FC08091E80080FFE9CF2091F300809166
:10369000F20090E0922B6115710559F08830910588
:1036A00040F424912093F100319661507109019604
:1036B000F2CF21E0089709F020E08091E8008E77B2
:1036C0008093E800CBCF2111CCCF0AC08091630258
:1036D000882361F0853061F08091E80083FD0AC0A5
:1036E0008091E80082FFF2CF80E0089582E00895A3
:1036F00083E0089581E00895982F973068F59093BE
:10370000E900981739F07091EC002091ED0050918C
:10371000F00003C0242F762F50E021FD02C09F5FF0
:10372000ECCF3091EB003E7F3093EB003091ED0019
:103730003D7F3093ED003091EB0031603093EB0032
:103740007093EC002093ED005093F0002091EE0078
:1037500027FDE5CF80E008958F708093E90081E038
:1037600008958091640287FF11C08091E80082FD76
:1037700005C0809163028111F8CF11C08091E800EB
:103780008B770BC080916302882349F08091E80019
:1037900080FFF8CF8091E8008E778093E80008954D
:1037A0002091E4003091E50095E64091EC00842FF3
:1037B000817040FF23C08091E80080FD1DC0809192
:1037C0006302882399F0853099F08091EB0085FDA4
:1037D00011C04091E4005091E5002417350729F30A
:1037E000915011F09A01E1CF84E0089582E00895AC
:1037F00083E0089581E0089580E008954091E80015
:1038000042FFDDCF08950E94711C0E94791CE0EEFA
:10381000F0E0808181608083E8EDF0E080818F7747
:10382000808319BCA7EDB0E08C918E7F8C93808152
:103830008F7E80831092620208950F931F93CF931F
:10384000DF930E94711C0E94791CC8EDD0E0888132
:103850008F77888388818068888388818F7D88833B
:1038600019BC1092630210925F02109261021092D2
:10387000600200EE10E0F80180818B7F80838881F8
:103880008160888342E060E080E00E947C1BE1EE82
:10389000F0E080818E7F8083E2EEF0E080818160C5
:1038A0008083808188608083F80180818E7F80831F
:1038B000888180618883DF91CF911F910F91089556
:1038C000E8EDF0E080818F7E8083E7EDF0E080819D
:1038D0008160808384E082BF81E0809362020C94E7
:1038E0001D1CE8EDF0E080818E7F80831092E20065
:1038F00008951092DA001092E10008951F920F923D
:103900000FB60F9211242F933F934F935F936F93B2
:103910007F938F939F93AF93BF93EF93FF93809188
:10392000E10082FF0BC08091E20082FF07C080911E
:10393000E1008B7F8093E1000E94F11E8091DA000C
:1039400080FF1DC08091D80080FF19C08091DA00EF
:103950008E7F8093DA008091D90019BC80FF0BC064
:1039600082E089BD09B400FEFDCF81E0809363024F
:103970000E94DE1804C0109263020E94EC1880912D
:10398000E10080FF19C08091E20080FF15C08091A6
:10399000E2008E7F8093E2008091E200806180935C
:1039A000E2008091D80080628093D80019BC85E045
:1039B000809363020E94F0188091E10084FF2FC081
:1039C0008091E20084FF2BC019BC82E089BD09B45C
:1039D00000FEFDCF8091D8008F7D8093D80080912C
:1039E000E1008F7E8093E1008091E2008F7E8093E2
:1039F000E2008091E20081608093E20080915F02AA
:103A0000882311F084E007C08091E30087FD02C0A5
:103A100081E001C083E0809363020E94F1188091ED
:103A2000E10083FF29C08091E20083FF25C08091DF
:103A3000E100877F8093E10082E08093630210922F
:103A40005F028091E1008E7F8093E1008091E2002F
:103A50008E7F8093E2008091E20080618093E2009B
:103A600042E060E080E00E947C1B8091F000886072
:103A70008093F0000E94EF18FF91EF91BF91AF91FA
:103A80009F918F917F916F915F914F913F912F9176
:103A90000F900FBE0F901F9018951F920F920FB6A8
:103AA0000F9211242F933F934F935F936F937F93C4
:103AB0008F939F93AF93BF93CF93DF93EF93FF9336
:103AC000C091E900CF708091EC00D82FD17080FDBB
:103AD000D0E81092E9008091F000877F8093F00099
:103AE00078940E94911D1092E9008091F000886006
:103AF0008093F000CD2BCF70C093E900FF91EF9140
:103B0000DF91CF91BF91AF919F918F917F916F91F5
:103B10005F914F913F912F910F900FBE0F901F908B
:103B200018951F93CF93DF93CDB7DEB7AA970FB643
:103B3000F894DEBF0FBECDBFE4E6F2E08091F10065
:103B4000819322E0EC36F207C9F70E94FC188091BD
:103B5000E80083FF2EC18091640290916502492F95
:103B600050E04A30510508F024C1FA01EC58FF4FEB
:103B70000C94211F803821F0823809F01AC108C046
:103B80008091600290916102992389F082600FC058
:103B9000809168028F70873008F00BC18093E90034
:103BA0008091EB0085FB882780F91092E9009091C5
:103BB000E800977F9093E8008093F1001092F10065
:103BC000D1C0282F2D7F09F0F4C0882319F082304E
:103BD00061F0EFC080916602813009F0EAC0933055
:103BE00009F080E0809361022EC08091660281110D
:103BF0002AC0809168028F702FEF280F263008F0BE
:103C0000D8C08093E9002091EB0020FF1CC09330C6
:103C100021F48091EB00806214C09091EB009061E0
:103C20009093EB0021E030E0A90102C0440F551F42
:103C30008A95E2F74093EA001092EA008091EB0047
:103C400088608093EB001092E9008091E800877F04
:103C50008093E8000E94B11BACC08111AAC01091F2
:103C600066021F778091E3008078812B8093E300C8
:103C70008091E800877F8093E8000E94B11B8091CB
:103C8000E80080FFFCCF8091E30080688093E30030
:103C9000111102C082E001C083E08093630289C0F9
:103CA0008058823008F085C080916602909167024A
:103CB0008C3D53E0950779F583E08A838AE2898316
:103CC0004FB7F894DE01139620E03EE051E2E32F77
:103CD000F0E050935700E49120FF03C0E295EF70AD
:103CE0003F5FEF708E2F90E0EA3010F0C79601C072
:103CF000C0968D939D932F5F243149F74FBF8091DC
:103D0000E800877F8093E8006AE270E0CE010196C8
:103D10000E94BD1A16C06091680270916902AE01DE
:103D20004F5F5F4F0E94021ABC01892B09F441C00A
:103D30009091E800977F9093E80089819A810E9492
:103D40001B1B8091E8008B778093E80032C080389D
:103D500081F58091E800877F8093E80080915F0281
:103D60008093F1008091E8008E7772CF811121C09D
:103D7000809166029091670299270297D4F480910E
:103D8000E800877F8093E8008091660280935F025D
:103D90000E94B11B80915F02811106C08091E300F7
:103DA00087FD02C081E001C084E0809363020E942D
:103DB000F2188091E80083FF0AC08091E800877FB5
:103DC0008093E8008091EB0080628093EB00AA96DC
:103DD0000FB6F894DEBF0FBECDBFDF91CF911F911C
:103DE00008950895CF93809163028823A1F0C09134
:103DF000E900CF709091EC00892F817090FD80E8F0
:103E0000C82B1092E9008091E80083FD0E94911D6B
:103E1000CF70C093E900CF91089597FB072E16F459
:103E2000009407D077FD09D00E94271F07FC05D01A
:103E30003EF4909581959F4F0895709561957F4FC1
:103E40000895EE0FFF1F0590F491E02D0994AA1B31
:103E5000BB1B51E107C0AA1FBB1FA617B70710F075
:103E6000A61BB70B881F991F5A95A9F780959095A7
:103E7000BC01CD010895F999FECF92BD81BDF89A9C
:103E8000992780B50895A8E1B0E042E050E00C9495
:103E90006F1F262FF999FECF92BD81BDF89A019729
:103EA00000B4021639F01FBA20BD0FB6F894FA9A82
:103EB000F99A0FBE08950396272F0E944A1F0E9469
:103EC000491F252F0E944A1F242F0C944A1F019638
:103ED000272F0E944A1F0C94491FDC01CB01FC01D3
:103EE000F999FECF06C0F2BDE1BDF89A319600B453
:0E3EF0000D9241505040B8F70895F894FFCF5E
:103EFE002808641E140A321E2E025518B218931882
:103F0E008F188B1801E200E900EA00B500B600B781
:103F1E0000CD008301CC008A01920194012102237D
:103F2E000224022502260227022A02B300B4006FE1
:103F3E000070008182833332366697C63435939291
:103F4E0091909431F7F6F5F4E200E900EA00B5003D
:103F5E00B600B700CD008301CC008A019201940116
:103F6E002102230224022502260227022A02B3007E
:0A3F7E00B4006F0070008182830020
:00000001FF
