:100000000C94F6080C943A090C943A090C943A09A9
:100010000C943A090C943A090C943A090C943A0954
:100020000C943A090C943A090C94200D0C94CD0DC3
:100030000C943A090C943A090C943A090C943A0934
:100040000C943A090C943E2A0C943A090C943A09FF
:100050000C943A090C948F1E0C943A090C943A09AA
:100060000C943A090C943A090C943A090C943A0904
:100070000C943A090C943A090C943A090C943A09F4
:100080000C943A090C943A090C943A090C943A09E4
:100090000C943A090C943A090C943A090C943A09D4
:1000A0000C943A090C943A090C943A098A0A8D0A7C
:1000B000900A930A960A990A9C0A9F0AA20AA50A1C
:1000C000A80AAB0AAE0A4B134B1379137913CE135C
:1000D0000A14FB15FB152214FB1519151915D51556
:1000E000FB15FB15E91558278027BD259D289D2860
:1000F00009279D289D28AC279D28BF2766289D2875
:100100009D289D289D280928F0279D28D9279D28CE
:1001100099279D28B22597289728972897289728C8
:10012000972897289728972895289D2895289D28CF
:100130009D289D289D289D289D289D289D289D2897
:100140009D289D2895289D289D280927EC269928DB
:100150009928992899289928992899289928992897
:1001600099289928992878289D286C277500011EC0
:10017000021E011F021F0120022001E101130213D0
:1001800002E1010402040116021601160216006EB5
:100190006F7420737570706F727465642E0A000A34
:1001A0000A4A756D7020746F20626F6F746C6F6196
:1001B0006465722E2E2E200000F0F1A1F1A2F1A3B1
:1001C00000C0292BC12A4B001E3404334EC21F36F7
:1001D000121465E02037080D7CE12113180E7D4CC8
:1001E000221C0C1B00353D4A004D00E23E2F003022
:1001F00000A82309070500E7240A0B1050E525068F
:10020000171A522C261511195128270F161D4FC2E7
:10021000382E2DE4310001010101C0003A01010135
:1002200001C33B01010101013C01010101013D014B
:10023000010101493E01010100C43FA900AA0001DA
:100240004001000100014101010100014201F4FBF4
:10025000F2014301F6F9F0014401F5FAF10145011B
:1002600001FCF3C3460101010100382E2DE03100ED
:10027000270F161D50012615111951282506171A8A
:10028000522C240A0B104FE52309070500E33E2FEB
:10029000003000A83D4A004D00E2221C0C1B003536
:1002A0002113180E7D4C2037080D7CE11F361214E7
:1002B00065E41E3404334E01292BC32A4B0046014A
:1002C00000010100450101FBF2014401F5FAF101D1
:1002D0004301F6F9F0014201F4FCF301410101018F
:1002E00000014001000100013FA900AA00013E01F8
:1002F000010100013D01010101493C010101010130
:100300003B01010101013A0101010101010101016A
:10031000C0000A002530313662003A200025303214
:1003200058000A722F632030313233343536373873
:10033000394142434445460A000A002530325800FC
:10034000626F756E6365213A20000A0025303258CD
:1003500000206D6F64733A20002000253032580071
:100360006B6579733A2000000100009005120002CD
:100370000000FC0386002100000E0409002200009A
:1003800051053F0021010027040900220100C70494
:10039000510021020040040900220200B2041500AD
:1003A00021030059040900220300820430002104C3
:1003B000005904090022040018053900030000F860
:1003C000030401030904DE031802030904D0030C2B
:1003D0000C036D00630064006F00780000001803D8
:1003E00054004D004B002F0064006D006300650059
:1003F000770061006E000000040309040902860012
:10040000050100A0320904000001030101000921D7
:1004100011010001223F000705810308000A0904B9
:100420000100010300000009211101000122510017
:10043000070582030800010904020001030000000F
:100440000921110100012215000705830320000185
:100450000904030001030000000921110100012229
:1004600030000705840308000A09040400010300A2
:100470000000092111010001223900070585031040
:10048000000105010980A1018502150125B71901A7
:1004900029B7751095018100C0050C0901A10185DE
:1004A000031501269C0219012A9C027510950181F1
:1004B00000C00631FF0974A1537508150026FF001E
:1004C000952009758102C005010902A1010901A158
:1004D00000050919012905150025017501950581FA
:1004E0000275039501810305010930093115812544
:1004F0007F75089502810609381581257F350045ED
:1005000000750895018106050C0A38021581257FC2
:10051000750895018106C0C005010906A101750194
:100520009508050719E029E71500250181029505C1
:1005300075010508190129059102950175039103BB
:1005400095787501150025010507190029778102A5
:10055000C005010906A10175019508050719E029E3
:10056000E715002501810295017508810395057540
:10057000010508190129059102950175039103955B
:10058000067508150025FF0507190029FF8100C021
:100590001201000200000020EDFE11110100010215
:1005A000000101C10201C10201C12601C10601C150
:1005B00016000A002530325820006B6579626F61A1
:1005C00072645F7265706F72743A20000A002530A1
:1005D0003258006B6579626F6172645F7365745F36
:1005E0006C65643A200064656C5F6B65795F626975
:1005F000743A2063616E27742064656C3A2025305C
:1006000032580A006164645F6B65795F6269743AAD
:100610002063616E2774206164643A20253032586B
:100620000A00646F6E652E0A00626F6F676D616706
:100630006963207363616E3A202E2E2E2000290AF2
:10064000002575002F002575005D28002564002019
:1006500000256400200025640020002564007C0043
:1006600025303258006D6F7573656B6579205B625C
:10067000746E7C782079207620685D287265702FF2
:1006800061636C293A205B000A002575006D6B5F81
:10069000776865656C5F74696D655F746F5F6D61C8
:1006A00078203D20000A002575006D6B5F77686536
:1006B000656C5F6D61785F7370656564203D2000D7
:1006C0000A002575006D6B5F74696D655F746F5FFF
:1006D0006D6178203D20000A002575006D6B5F6D0F
:1006E00061785F7370656564203D20000A002575A0
:1006F000006D6B5F696E74657276616C203D2000E1
:100700000A002575006D6B5F64656C6179203D2082
:10071000000A002575006D6B5F776865656C5F7416
:10072000696D655F746F5F6D6178203D20000A0020
:100730002575006D6B5F776865656C5F6D61785FCF
:100740007370656564203D20000A002575006D6B9F
:100750005F74696D655F746F5F6D6178203D200027
:100760000A002575006D6B5F6D61785F737065655C
:1007700064203D20000A002575006D6B5F696E7472
:10078000657276616C203D20000A002575006D6B56
:100790005F64656C6179203D20000A002575003694
:1007A0003A206D6B5F776865656C5F74696D655F36
:1007B000746F5F6D61783A20000A00257500353A44
:1007C000206D6B5F776865656C5F6D61785F7370D6
:1007D0006565643A20000A00257500343A206D6B87
:1007E0005F74696D655F746F5F6D61783A20000AB0
:1007F00000257500333A206D6B5F6D61785F737013
:100800006565643A20000A00257500323A206D6B58
:100810005F696E74657276616C286D73293A200089
:100820000A00257500313A206D6B5F64656C617953
:10083000282A31306D73293A20000A0A2D2D2D2DDA
:100840002D204D6F7573656B657920506172616DF8
:100850006574657273202D2D2D2D2D0A003E20000C
:100860002575004D003F00736574206465666175F1
:100870006C742076616C7565732E0A000A0025750C
:100880000073656C656374656420706172616D6589
:100890007465723A2000433E20000A517569742045
:1008A0004D6F7573656B657920436F6E736F6C6503
:1008B0000A0053656520687474703A2F2F656E2E98
:1008C00077696B6970656469612E6F72672F7769EC
:1008D0006B692F4D6F7573655F6B6579730A000ADD
:1008E000002575002C20776865656C3D0025750036
:1008F00077686572652064656C74613A206375720F
:10090000736F723D000A7370656564203D206465F5
:100910006C7461202A206D61785F73706565642056
:100920002A2028726570656174202F2074696D65B6
:100930005F746F5F6D6178290A007067646F776E0E
:100940003A096465637265617365207072616D65F3
:1009500074657273282D3130290A00706775703AFA
:1009600009696E637265617365207072616D65748B
:10097000657273282B3130290A00646F776E3A094B
:100980006465637265617365207072616D6574651D
:100990007273282D31290A0075703A09696E6372E5
:1009A00065617365207072616D6574657273282B63
:1009B00031290A00643A09736574206465666175BB
:1009C0006C742076616C7565730A00703A097072F8
:1009D000696E74207072616D65746572730A003699
:1009E0003A0973656C656374206D6B5F7768656544
:1009F0006C5F74696D655F746F5F6D61780A003557
:100A00003A0973656C656374206D6B5F7768656523
:100A10006C5F6D61785F73706565640A00343A09D4
:100A200073656C656374206D6B5F74696D655F746D
:100A30006F5F6D61780A00333A0973656C656374A2
:100A4000206D6B5F6D61785F73706565640A00325D
:100A50003A0973656C656374206D6B5F696E7465CC
:100A60007276616C286D73290A00313A0973656CDE
:100A7000656374206D6B5F64656C6179282A313021
:100A80006D73290A004553432F713A0971756974D2
:100A90000A000A0A2D2D2D2D2D204D6F7573656BC3
:100AA000657920506172616D657465727320486567
:100AB0006C70202D2D2D2D2D0A003F004D303E0055
:100AC0000A456E746572204D6F7573656B6579208C
:100AD000436F6E736F6C650A000A51756974204329
:100AE0006F6E736F6C65204D6F64650A00433E2026
:100AF000000A0025750020746F20002575007377AB
:100B0000697463685F64656661756C745F6C617954
:100B100065723A20006D3A096D6F7573656B657982
:100B20000A004553432F713A09717569740A000A26
:100B30000A2D2D2D2D2D20436F6E736F6C6520486F
:100B4000656C70202D2D2D2D2D0A00506175733A86
:100B5000096A756D7020746F20626F6F746C6F61BD
:100B60006465720A00436170733A094C6F636B20CD
:100B70004B6579626F617264284368696C642050C8
:100B8000726F6F66290A00505363723A09706F776B
:100B9000657220646F776E2F72656D6F7465207754
:100BA000616B652D75700A00342F46343A097377EE
:100BB0006974636820746F204C6179657234200A0F
:100BC00000332F46333A0973776974636820746F72
:100BD000204C6179657233200A00322F46323A097F
:100BE00073776974636820746F204C617965723221
:100BF000200A00312F46313A0973776974636820FF
:100C0000746F204C6179657231200A00302F4631B3
:100C1000303A0973776974636820746F204C617986
:100C2000657230200A006E3A09746F67676C652040
:100C30004E4B524F0A00653A097072696E74206516
:100C40006570726F6D20636F6E6669670A00733A34
:100C5000097072696E74207374617475730A00741C
:100C60003A097072696E742074696D657220636FE1
:100C7000756E740A00763A097072696E7420646544
:100C8000766963652076657273696F6E20262069C8
:100C90006E666F0A007A3A09746F67676C65207335
:100CA0006C656570204C454420746573740A006D52
:100CB0003A09746F67676C65206D6F7573652064A2
:100CC000656275670A006B3A09746F67676C652027
:100CD0006B6579626F6172642064656275670A0092
:100CE000783A09746F67676C65206D617472697812
:100CF0002064656275670A00643A09746F67676CFF
:100D00006520646562756720656E61626C650A00C6
:100D1000633A09656E74657220636F6E736F6C65FC
:100D2000206D6F64650A000A0A2D2D2D2D2D20439C
:100D30006F6D6D616E642048656C70202D2D2D2DBA
:100D40002D0A000A002575002E6E6B726F3A200086
:100D50000A002575002E737761705F6261636B73A3
:100D60006C6173685F6261636B73706163653A2085
:100D7000000A002575002E737761705F67726176D7
:100D8000655F6573633A20000A002575002E6E6F5B
:100D90005F6775693A20000A002575002E73776138
:100DA000705F72616C745F726775693A20000A0047
:100DB0002575002E737761705F6C616C745F6C6772
:100DC00075693A20000A002575002E636170736C06
:100DD0006F636B5F746F5F636F6E74726F6C3A20DA
:100DE000000A002575002E737761705F636F6E7463
:100DF000726F6C5F636170736C6F636B3A20000A93
:100E00000025303258006B65796D61705F636F6EDD
:100E10006669672E7261773A20000A002575002EF8
:100E20006D6F7573653A20000A002575002E6B659D
:100E300079626F6172643A20000A002575002E6D98
:100E400061747269783A20000A002575002E656E7B
:100E500061626C653A20000A0025303258006465F2
:100E60006275675F636F6E6669672E7261773A209D
:100E7000000A0025750064656661756C745F6C61BD
:100E80007965723A20003F004E4B524F3A20646918
:100E90007361626C65640A004E4B524F3A20656E76
:100EA00061626C65640A007573625F6B6579626F7D
:100EB0006172645F69646C655F636F756E743A201C
:100EC00025580A007573625F6B6579626F617264A1
:100ED0005F6C6564733A2025580A005544494E54A6
:100EE0003A2025580A00554449454E3A2025580ACB
:100EF000005544434F4E3A2025580A006B657962ED
:100F00006F6172645F69646C653A2025580A006BF2
:100F10006579626F6172645F70726F746F636F6C1A
:100F20003A2025580A00686F73745F6B6579626FA9
:100F30006172645F6C65647328293A2025580A0041
:100F40000A0A2D2D2D2D2D20537461747573202DBB
:100F50002D2D2D2D0A0074696D65725F636F756E9E
:100F6000743A202530346C580A004743433A203401
:100F70002E382E32204156522D4C4942433A2031D0
:100F80002E382E30204156525F415243483A20615C
:100F90007672350A004F5054494F4E533A20504A0A
:100FA000524320424F4F544D41474943204D4F55E6
:100FB00053454B45592045585452414B45592043C0
:100FC0004F4E534F4C4520434F4D4D414E44204EC4
:100FD0004B524F203531320A004255494C443A2099
:100FE00037346261326565202832303A34333A3220
:100FF00039204D61792032372032303136290A00CC
:101000005649443A2030784645454428544D4B2FA4
:10101000646D636577616E29205049443A203078C9
:1010200031313131286D63646F7829205645523A49
:10103000203078303030310A00444553433A207430
:101040002E6D2E6B2E206B6579626F617264206647
:1010500069726D7761726520666F72206D63646F6F
:10106000780A000A0A2D2D2D2D2D205665727369E0
:101070006F6E202D2D2D2D2D0A000A444542554717
:101080003A206D6F7573652064697361626C656485
:101090002E0A000A44454255473A206D6F75736524
:1010A00020656E61626C65642E0A000A44454255F3
:1010B000473A206B6579626F61726420646973617D
:1010C000626C65642E0A000A44454255473A206B1B
:1010D0006579626F61726420656E61626C65642E11
:1010E0000A000A44454255473A206D617472697896
:1010F0002064697361626C65642E0A000A4445428B
:1011000055473A206D617472697820656E61626C32
:1011100065642E0A000A44454255473A20656E61CF
:10112000626C65642E0A000A44454255473A2064C1
:10113000697361626C65642E0A006E6F742073754A
:1011400070706F727465642E0A000A0A4A756D70B9
:1011500020746F20626F6F746C6F616465722E2EE5
:101160002E2000433E20000A456E74657220436FB6
:101170006E736F6C65204D6F64650A00556E6C6F01
:10118000636B65642E0A004C6F636B65642E0A0006
:101190006565636F6E6669673A0A00536C656570D2
:1011A000204C454420746573740A00000000000060
:1011B000000000000000010204060A0F17202C3A6C
:1011C0004A5D71879DB3C7DAE9F5FCFFFCF5E9DA02
:1011D000C7B39D87715D4A3A2C20170F0A06040297
:1011E00001000000000000000000000011241FBEEC
:1011F000CFEFDAE0DEBFCDBF04B603FE24C080919E
:10120000C5019091C601A091C701B091C801873076
:10121000904BA740B04BB9F41092C5011092C60193
:101220001092C7011092C80114BE84B7877F84BF93
:1012300088E10FB6F89480936000109260000FBEB2
:10124000E0E0FFE3099511E0A0E0B1E0E0E0F8E5BF
:1012500002C005900D92A232B107D9F711E0A2E2C7
:10126000B1E001C01D92A53CB107E1F70E94B70BA8
:101270000C94FE2B0C940000FF93EF93E091AF01D0
:10128000F091B001309709F00995EF91FF91089521
:10129000FC018591803011F0EFDFFBCF0895FF272F
:1012A000E0E230E247FF0CC0419597FF09C0EDE254
:1012B0006095709580959095611D711D811D911DA2
:1012C00027FF02C0219530E350E2AA27660F771F5F
:1012D000881F991FAA1FA41710F0A41B63955A9585
:1012E000A9F7AA3008F0A95FA05DAF93F395611547
:1012F00071058105910541F7ED3211F4EF93F395F6
:10130000F21718F43F93F395FBCF8F91B5DFFA9561
:10131000E1F70895E991F9918591803021F08532C6
:1013200019F0AADFF9CF089520E0E89455915532DD
:10133000C1F3503311F4689455915A3348F4505323
:1013400090F3220F022E220F220F200D250FF4CF33
:101350000EF4219589919991533619F3533729F158
:10136000533559F1BC0188279927E8945C3621F45C
:101370008991999168945591543639F446EF7EF0ED
:1013800077FF0DC08FEF9FEF0AC055374AE039F065
:10139000583540E121F0523642E009F00895FF93BC
:1013A000EF937DDFEF91FF91B7CFFF93EF93FC01B8
:1013B00081918030B9F360DFFBCFFF93EF9368DF5B
:1013C000F1CFDF93CF93CDB7DEB72596A3DFCF91D3
:1013D000DF91089508950895611115C00E941C16AB
:1013E0008FE991E00E9448092FEF84E39CE02150AF
:1013F00080409040E1F700C000000E94B41E8FE8DA
:1014000091E00C9448090895FC018281611105C0A6
:10141000882319F08CE691E0089580E090E008952B
:10142000272F70E030E0843060F496E0929FF00166
:10143000939FF00D112494E5899FE00DF11D112477
:1014400006C086E0829FF001839FF00D1124E60F15
:10145000F71FEE53FE4F84910895E82FF0E0E05C13
:10146000F109E530F10538F4EE0FFF1FE854FE4FA7
:1014700085919491089580E090E0089584B18076FC
:1014800084B985B1807685B98AB18C7F8AB98BB1F0
:101490008C7F8BB980B38C7080BB81B38C7081BB27
:1014A00008950E94870B0E943E0A87B18F7387B907
:1014B00088B1806C88B98AB1837C8AB98BB18C631E
:1014C0008BB9E0E3F1E0A2E2B1E011921D9281E07C
:1014D000EE33F807D1F70895DF92EF92FF920F9362
:1014E0001F93CF93DF93C2E2D1E0F12CEE24E3947B
:1014F00085E0D82E0BE313E08F2D90E0FC013197AF
:10150000ED30F10520F4EA5AFF4F0C94B32B249AE6
:101510002C9826C0879A8F9823C0869A8E9820C0D0
:10152000859A8D981DC0849A8C981AC0819A899842
:1015300017C0809A889814C0209A289811C0219AC0
:1015400029980EC0229A2A980BC0239A2B9808C07B
:10155000279A2F9805C0509A589802C0519A5998C6
:1015600080EA8A95F1F799B1929591709E254D9BED
:1015700002C080E001C082E0982B86B18095881F70
:101580008827881F880F880F982B369B02C080E021
:1015900001C088E0982B4B9B02C080E001C080E135
:1015A000982B4A9B02C080E001C080E2982B888182
:1015B000891739F1988380910001882301F1809186
:1015C000AE0180FF04C080E493E00E94480980914E
:1015D000AE0180FF0CC0809100011F928F931F937A
:1015E0000F930E94E1090F900F900F900F90809140
:1015F000AE0180FF04C089E393E00E944809D092C5
:1016000000010E943E0AF39421969EE0F91274CFE5
:10161000809100018823B1F08150809300018823DC
:1016200039F08FE99FE00197F1F700C000000AC090
:10163000A0E3B1E0E2E2F1E081918D9391E0E0334B
:10164000F907D1F781E0DF91CF911F910F91FF90C2
:10165000EF90DF900895E82FF0E0E05DFE4F80818D
:101660000895CF92DF92EF92FF920F931F93CF9343
:10167000DF9382E293E00E94480990E3E92E91E033
:10168000F92EC0E0D0E02DE1C22E23E0D22E04E1FD
:1016900013E0DF93CF93DF92CF920E94E1098AE1BA
:1016A00093E00E944809F70181917F0190E00E9438
:1016B000FA1D9F938F931F930F930E94E10982E17C
:1016C00093E00E94480921968DB79EB708960FB601
:1016D000F8949EBF0FBE8DBFCE30D105D1F6DF91FD
:1016E000CF911F910F91FF90EF90DF90CF900895D1
:1016F00080FF03C025982D9802C0259A2D9A81FF5E
:1017000003C0269A2E9A089526982E98089584B19B
:101710008F7984B98BB180668BB955985D9A6E9834
:10172000769A56985E9825982D9826982E988FEF41
:1017300090E0909389008093880090938B00809331
:101740008A00569A5E9A259A2D9A269A2E9A2FE703
:1017500082E490E1215080409040E1F700C0000019
:1017600056985E9825982D9826982E98089580E88A
:1017700080936100109261000E94F20C0E940B0D98
:101780008823E1F384EA9CE00E94901D0E94E0100F
:101790000E94F70B0E944E100E94192A809142016C
:1017A000882371F083E00E94141E809143018823F6
:1017B000A9F30E943A1E882389F30E94160DEECFEA
:1017C0000E940E11EBCF80913E0108950C944610BB
:1017D0000C944A100F93FC010081248143816281A3
:1017E00081810E94A90F0F9108950C94870C81E0CC
:1017F00091E00895FF920F931F93CF93DF93D82F1B
:10180000F92E162F042F0E940B0D811102C08FEFAD
:101810002AC02FB7F8941093E900C091E400CE5C81
:101820008091E80085FF04C09D2FED2FFF2D0EC095
:101830002FBF0E940B0D882351F38091E4008C1779
:1018400031F32FB7F8941093E900EACF8E2F891B5C
:10185000801720F481918093F100F8CF8AE3809380
:10186000E8002FBF80E0DF91CF911F910F91FF9093
:101870000895EF92FF920F931F93CF93DF938C0104
:101880008091AE0182FF3CC080E693E00E9448094F
:10189000C0E0D0E08BE5E82E83E0F82EF801EC0FF5
:1018A000FD1F82811F928F93FF92EF920E94E109A8
:1018B00089E593E00E94480921960F900F900F90C0
:1018C0000F90CE30D10551F781E593E00E94480991
:1018D000F80180811F928F938CE493E09F938F9304
:1018E0000E94E1090F900F900F900F908AE493E00F
:1018F000DF91CF911F910F91FF90EF900C944809C9
:10190000DF91CF911F910F91FF90EF9008951F935A
:10191000CF93DF93EC0180910E01882319F040E111
:1019200065E002C048E061E0CE010E94FA0B182F8A
:10193000811105C010923F01CE010E94390C812F08
:10194000DF91CF911F9108951F93CF93DF93D82FED
:101950000E940B0D882371F09FB7F89483E0809369
:10196000E90080914101882349F08091E80085FDDC
:1019700003C09FBF8FEF2DC010924101C091E400C2
:10198000CC5F13E08091E80085FD12C09FBF80917D
:10199000E4008C1304C081E080934101EBCF0E94EE
:1019A0000B0D882339F39FB7F8941093E900EACF21
:1019B000D093F1008091E80085FD06C08AE3809312
:1019C000E8001092400103C082E0809340019FBF75
:1019D00080E0DF91CF911F9108958091E80080FF12
:1019E000FCCF089581E08093D70080EA8093D800EF
:1019F00082E189BD09B400FEFDCF80E98093D80063
:101A00001092E00010924501109242018DE1809306
:101A1000E2007894089580914501882329F080910F
:101A2000420191E08927089580E008958091E000C7
:101A300082608093E0008091E00081FDFCCF0895FA
:101A40001F920F920FB60F9211242F933F934F9333
:101A50005F936F937F938F939F93AF93BF93CF9336
:101A6000EF93FF93C091E1001092E100C0FF17C017
:101A70008091E20080FF13C080914501882379F0B6
:101A80000E942B2A8091E2008E7F8093E200809159
:101A9000E20080618093E20081E080934201C4FF14
:101AA0001CC08091E20084FF18C08091450188230A
:101AB000A1F00E944F1E0E94312A0E9458100E94DD
:101AC000780B8091E20081608093E2008091E200D7
:101AD0008F7E8093E20010924201C3FF0FC01092EC
:101AE000E90081E08093EB001092EC0082E28093A9
:101AF000ED0088E08093F00010924501C2FF3BC0EA
:101B0000809145018823B9F180914001882391F0AB
:101B100081508093400181110DC083E08093E900E2
:101B20008091E80085FF03C01092F100F9CF8AE3AD
:101B30008093E80080910E0181111DC080910B01FE
:101B40008823C9F0809144018F5F809344018370A2
:101B500091F481E08093E9008091E80085FF0BC05B
:101B600080913F018F5F80933F0190910B0189131A
:101B700002C010923F01FF91EF91CF91BF91AF91C1
:101B80009F918F917F916F915F914F913F912F9195
:101B90000F900FBE0F901F9018951F920F920FB6C7
:101BA0000F921124EF92FF920F931F932F933F9365
:101BB0004F935F936F937F938F939F93AF93BF9355
:101BC000EF93FF93CF93DF931F92CDB7DEB71092C1
:101BD000E9008091E80083FFA1C19091F10080911C
:101BE000F1003091F1002091F100E32EF12CF22A66
:101BF0000091F1002091F10010E0122B2091F100F2
:101C00004091F10030E0342B42EF4093E800863001
:101C100009F044C06FE087E693E0FC0145915491E0
:101C20004E155F0539F4FC013296459154914017E9
:101C3000510721F00796615081F770C1FC0134967D
:101C400045915491FC01369684912F3F310519F04E
:101C500010F02FEF30E0281708F4822F3EEF90911C
:101C6000E800292F2570D9F392FD5BC1982F8132AE
:101C700008F090E2FA01292F222331F06491609359
:101C8000F10021503196F8CF490F511D891B309337
:101C9000E8008111E4CF903211F343C1853051F453
:101CA0008EEF8093E8000E94ED0C8E2D806880936B
:101CB000E30037C1893061F591114AC0E0924501D6
:101CC0008EEF8093E80041E082EA95E051E0409396
:101CD000E9009C012F5F3F4FFC016491662379F07E
:101CE0005093EB00F90124912093EC009C012D5FAF
:101CF0003F4FFC01329684918093ED0002C0109218
:101D0000EB004F5F473011F0C901E1CF8EE743C0D0
:101D1000883041F4903809F052C00E94ED0C809157
:101D20004501CDC0811114C099830E94ED0C9981A9
:101D3000923851F40093E9008091EB0085FB8827ED
:101D400080F91092E90001C080E08093F100A6C004
:101D5000482F4D7F413099F5923011F5E114F1048F
:101D600009F085C0402F4F775FEF540F563008F0D1
:101D70007EC09EEF9093E8004093E900833009F421
:101D8000CDC089E18093EB0081E090E0042E01C09A
:101D9000880F0A94EAF78093EA001092EA00C1C023
:101DA00091110DC0F1E0EF16F10409F060C083302D
:101DB00019F4409343018CC01092430189C001156E
:101DC000110509F058C0913A61F58130D9F40E94AB
:101DD000ED0CE0910F01F091100180818093F100F2
:101DE0001092F10080E090E0E0910F01F09110017D
:101DF000E80FF91F22812093F100019686309105AA
:101E000099F766C0823029F40E94ED0C80910B0195
:101E100056C0833009F082C00E94ED0C80910C0105
:101E20004EC0913209F07AC0893061F48091E800A7
:101E300082FFFCCF8091F10080933E018BEF809375
:101E4000E80046C08A3029F4F0920B0110923F015D
:101E50003FC08B3009F062C0E0920C0181E0E110DC
:101E600001C080E080930E010E941C1631C0011554
:101E7000110509F453C00130110571F5913A11F5BE
:101E80008130B9F451E0E516F10459F40E94ED0CEB
:101E90001092F1001092F1001092F1001092F100F6
:101EA00017C083E0E816F104C9F50E94ED0C85E047
:101EB00006C0833099F50E94ED0C80910D0180934E
:101EC000F10006C0913251F58B3041F5E0920D01E1
:101ED0008EEF8093E80025C002301105F9F48130BF
:101EE000E9F4913AD9F43EEF8091E800982F95708B
:101EF000D9F382FD16C0822F213208F080E2982F9C
:101F0000992321F01092F1009150FACF281B3093C1
:101F1000E8002111E9CF803239F303C081E28093D8
:101F2000EB000F90DF91CF91FF91EF91BF91AF91B7
:101F30009F918F917F916F915F914F913F912F91E1
:101F40001F910F91FF90EF900F900FBE0F901F9079
:101F50001895EF92FF920F931F93CF93DF9300D0CA
:101F60001F92CDB7DEB7E82E142F2B836A830E9411
:101F70000B0D2B816A81811102C08FEF43C080E875
:101F8000E81202C041E8E42E603809F461E8103834
:101F900009F411E8203809F421E88FB7F89492E0A9
:101FA0009093E9009091E4009E5C32E0F32E309132
:101FB000E80035FD14C08FBF2B836A8399830E948C
:101FC0000B0D2B816A8199818823B9F28091E400FD
:101FD000891799F28FB7F894F092E900E8CF00934F
:101FE000F100E092F1006093F10090910D019923CE
:101FF00021F01093F1002093F1009AE39093E80010
:102000008FBF80E00F900F900F90DF91CF911F91C5
:102010000F91FF90EF900895FF920F931F93CF932E
:10202000DF93D82F8B010E940B0D811102C08FEF1F
:1020300027C09FB7F89484E08093E900C091E40042
:10204000CE5C84E0F82E8091E80085FD0EC09FBF35
:102050000E940B0D882359F38091E4008C1739F30B
:102060009FB7F894F092E900EECFD093F10000937F
:10207000F1001093F1008AE38093E8009FBF80E0B5
:10208000DF91CF911F910F91FF900895BC0183E0E4
:102090000C940C10BC0182E00C940C1090934B013A
:1020A00080934A01089580914A0190914B010895CF
:1020B000E0914A01F0914B01309721F00190F081BD
:1020C000E02D099480E00895FF920F931F93CF9322
:1020D000DF938C01E0914A01F0914B01309799F127
:1020E0000280F381E02D09958091AE0182FF2BC023
:1020F00080FF04C08AEB95E00E944809E80180E176
:10210000F82E04EB15E08091AE0180FF0BC08881B2
:102110001F928F931F930F930E94E1090F900F90CE
:102120000F900F90FA942196F110EDCF8091AE01AF
:1021300080FF09C082EB95E0DF91CF911F910F9155
:10214000FF900C944809DF91CF911F910F91FF9060
:102150000895E0914A01F0914B01309721F00480FD
:10216000F581E02D099408952091480130914901AD
:102170008217930771F09093490180934801E09191
:102180004A01F0914B01309721F00680F781E02D54
:1021900009940895209146013091470182179307D1
:1021A00071F09093470180934601E0914A01F091CC
:1021B0004B01309721F00084F185E02D09940895BA
:1021C0000E94511E0E94510A0C941A1FCF93C82FCF
:1021D0008091AE0182FF1EC080FF04C083ED95E0B8
:1021E0000E9448098091AE0180FF0CC01F92CF93DE
:1021F0002EEC35E03F932F930E94E1090F900F9052
:102200000F900F908091AE0180FF04C08CEC95E0A0
:102210000E9448098C2FCF910C94780BCF92DF92BB
:10222000EF92FF920F931F93CF93DF93CDB7DEB75B
:102230002B970FB6F894DEBF0FBECDBF0E946C0A7D
:102240003DE4E32E31E0F32E00E010E0C02E802FBD
:102250000E942B0BF701D1907F01D826B1F40F5FBC
:102260001F4F0E30110591F78FEF89838A831B82F0
:102270000E945A1E8160782F9D838C8349815A81E8
:102280006B818D810E94B11141C09091AE0191FF8F
:1022900004C08B870E94310B8B8520E030E04D2DF0
:1022A00050E0922FBA01022E02C0759567950A94EC
:1022B000E2F760FF25C02E83CF82EE24E394F12C59
:1022C00002C0EE0CFF1C9A95E2F790E08E219F2150
:1022D00021E0892B09F420E028870E945A1E8160A2
:1022E000782F9A8789874E815F8168858A850E94C9
:1022F000B111F801E35BFE4F80818E25808306C01B
:102300002F5F3F4F2630310561F6A9CF0E9488220A
:1023100010914C010E9458101817A1F00E945810FB
:1023200080934C012B960FB6F894DEBF0FBECDBF45
:10233000DF91CF911F910F91FF90EF90DF90CF90A1
:102340000C94E6102B960FB6F894DEBF0FBECDBFEF
:10235000DF91CF911F910F91FF90EF90DF90CF9081
:102360000895CF93DF93CDB7DEB72B970FB6F894D0
:10237000DEBF0FBECDBF4F83588769877A878B87B3
:10238000DE01119686E0FD0111928A95E9F785E05C
:10239000FE01379601900D928A95E1F749815A81A5
:1023A0006B817C818D819E810E94E4182B960FB6F3
:1023B000F894DEBF0FBECDBFDF91CF910895CF93CC
:1023C000C82F882309F4C1C0823859F40E945810DC
:1023D00081FDBBC089E30E94811B0E94551C89E3DB
:1023E0000CC0833879F40E94581080FDAEC083E59C
:1023F0000E94811B0E94551C83E50E94CE1BCF9139
:102400000C94551C843859F40E94581082FD9DC0CC
:1024100087E40E94811B0E94551C87E4EECF8CEF5D
:102420008C0F813A48F48C2F0E94A92881118DC00D
:102430008C2F0E94811BE3CF80E28C0F883048F400
:10244000C77081E001C0880FCA95EAF70E941C1C82
:10245000D6CF8BE58C0F833078F4C53A29F0C63A95
:1024600031F482E890E005C081E890E002C083E8A2
:1024700090E0CF910C94B41088E58C0F833108F074
:1024800064C0C83A39F1C93A41F1CA3A49F1CB3A84
:1024900051F1CC3A59F1CD3A61F1C03B69F1CE3AF4
:1024A00071F1CF3A79F1C13B81F1C23B89F1C33B74
:1024B00091F1C43B99F1C53BA1F1C63BA9F1C73BE2
:1024C000B1F1C83BB9F1C93BC1F1CA3BC9F58AE2D8
:1024D00092E038C082EE90E035C089EE90E032C0E4
:1024E0008AEE90E02FC085EB90E02CC086EB90E068
:1024F00029C087EB90E026C08CEC90E023C08DECE7
:1025000090E020C083E891E01DC08AE891E01AC005
:1025100082E991E017C084E991E014C081E292E081
:1025200011C083E292E00EC084E292E00BC085E22B
:1025300092E008C086E292E005C087E292E002C025
:1025400080E090E0CF910C94CA10CF910895882339
:1025500009F44BC0823859F40E94581081FF45C0DD
:1025600089E30E94811B0E94551C89E30CC08338BB
:1025700071F40E94581080FF38C083E50E94811BCF
:102580000E94551C83E50E94CE1B0C94551C843878
:1025900059F40E94581082FF28C087E40E94811BD2
:1025A0000E94551C87E4EFCF9CEF980F913A58F3A7
:1025B00090E2980F983050F4877091E001C0990F25
:1025C0008A95EAF7892F0E94221CDFCF9BE5980F9E
:1025D000933020F480E090E00C94B410885A83315A
:1025E00020F480E090E00C94CA100895882321F034
:1025F0000E941C1C0C94551C0895882321F00E94F5
:10260000221C0C94551C0895CF92DF92EF92FF92FA
:102610000F931F93CF93DF93CDB7DEB728970FB6F5
:10262000F894DEBF0FBECDBF8C0185E0F801DE015E
:10263000119601900D928A95E1F7F8014081318160
:10264000F280258122952F7083819481892B31F02E
:102650003F3F31F481E04F3F19F403C081E001C0F6
:1026600080E080FDC8C249833A8389819A812F83A3
:102670000E943F1B9E8388870E943E1B0E94111A66
:102680004E81E42FE295EF70F0E0ED59FF4F2F817E
:1026900068850C94B32B842F807F142F1F708823A0
:1026A00011F01295107FFF2059F0112309F458C240
:1026B000812F68870E942C1C0E94551C688550C27F
:1026C000862F0E94A712112309F495C2812F0E9420
:1026D000321C28960FB6F894DEBF0FBECDBFDF9137
:1026E000CF911F910F91FF90EF90DF90CF900C94BE
:1026F000551C342F307F842F8F70303211F082952B
:10270000807F662319F0613009F12AC0FF20A1F013
:10271000222381F1213071F528960FB6F894DEBF9F
:102720000FBECDBFDF91CF911F910F91FF90EF9022
:10273000DF90CF900C943C1C222319F0213009F437
:102740005AC28E830E943F1C8E818EC1FF2021F0D1
:10275000263008F050C20EC0253008F04CC284C1AB
:10276000FF20C1F0222331F0F801958190FFF8C1DC
:102770009F70958328960FB6F894DEBF0FBECDBF2D
:10278000DF91CF911F910F91FF90EF90DF90CF904D
:102790000C94F612222309F467C1F6C1242F269562
:1027A0002695237030E02115310521F021303105C7
:1027B000C9F021C2FF2021F0862F942F937002C010
:1027C00080E090E028960FB6F894DEBF0FBECDBF34
:1027D000DF91CF911F910F91FF90EF90DF90CF90FD
:1027E0000C94B410FF2021F0862F942F937002C018
:1027F00080E090E028960FB6F894DEBF0FBECDBF04
:10280000DF91CF911F910F91FF90EF90DF90CF90CC
:102810000C94CA10862FFF2019F00E940E2102C0CE
:102820000E94762128960FB6F894DEBF0FBECDBF6A
:10283000DF91CF911F910F91FF90EF90DF90CF909C
:102840000C94FB21842F837009F076C0F110D3C162
:10285000262F229526952770220F220F862F8F7004
:10286000C82ED12CE12CF12C022E04C0CC0CDD1C86
:10287000EE1CFF1C0A94D2F764FF10C06FE070E0FA
:1028800080E090E004C0660F771F881F991F2A958B
:10289000D2F7609570958095909503C060E070E0E8
:1028A000CB01242F269526952370422F50E04230ED
:1028B0005105D1F04330510559F16C297D298E29FC
:1028C0009F294130510541F128960FB6F894DEBF9B
:1028D0000FBECDBFDF91CF911F910F91FF90EF9071
:1028E000DF90CF900C94361A6C297D298E299F2970
:1028F00028960FB6F894DEBF0FBECDBFDF91CF9103
:102900001F910F91FF90EF90DF90CF900C94501A91
:102910000E94361AC701B60128960FB6F894DEBF9A
:102920000FBECDBFDF91CF911F910F91FF90EF9020
:10293000DF90CF900C941C1AFF2019F0842F817027
:1029400001C08695882309F456C1262F2295269525
:102950002770220F220F862F8F70C82ED12CE12CCA
:10296000F12C022E04C0CC0CDD1CEE1CFF1C0A94C2
:10297000D2F764FF10C06FE070E080E090E004C028
:10298000660F771F881F991F2A95D2F7609570955B
:102990008095909503C060E070E0CB01242F2695D0
:1029A00026952370422F50E042305105D1F043303C
:1029B000510559F16C297D298E299F2941305105F6
:1029C00041F128960FB6F894DEBF0FBECDBFDF9160
:1029D000CF911F910F91FF90EF90DF90CF900C94CB
:1029E0000A1B6C297D298E299F2928960FB6F894F9
:1029F000DEBF0FBECDBFDF91CF911F910F91FF9032
:102A0000EF90DF90CF900C94241B0E940A1BC7010B
:102A1000B60128960FB6F894DEBF0FBECDBFDF918A
:102A2000CF911F910F91FF90EF90DF90CF900C947A
:102A3000F01A603F49F118F4603E48F48CC0623FE0
:102A400009F451C0E0F1633F09F461C084C0162F5E
:102A50001F70842F8F71FF2021F00E94891A812F0F
:102A600089CE0E94AA1A812F28960FB6F894DEBF4D
:102A70000FBECDBFDF91CF911F910F91FF90EF90CF
:102A8000DF90CF900C94FD12FF20A9F0253008F0C4
:102A9000B2C0842F8F7128960FB6F894DEBF0FBE98
:102AA000CDBFDF91CF911F910F91FF90EF90DF90FD
:102AB000CF900C94CF1A263008F09DC0EACFFF20AB
:102AC000A1F0842F8F7128960FB6F894DEBF0FBE49
:102AD000CDBFDF91CF911F910F91FF90EF90DF90CD
:102AE000CF900C94891AFF2061F3842F8F71289660
:102AF0000FB6F894DEBF0FBECDBFDF91CF911F910F
:102B00000F91FF90EF90DF90CF900C94AA1AFF20C6
:102B100091F0842F8F7128960FB6F894DEBF0FBE08
:102B2000CDBFDF91CF911F910F91FF90EF90DF907C
:102B3000CF900C94741A28960FB6F894DEBF0FBE8F
:102B4000CDBFDF91CF911F910F91FF90EF90DF905C
:102B5000CF900C946A1AFF20A1F0222309F4B1CF80
:102B6000862F28960FB6F894DEBF0FBECDBFDF913B
:102B7000CF911F910F91FF90EF90DF90CF900C9429
:102B8000DF11222309F4B1CF862F28960FB6F894CF
:102B9000DEBF0FBECDBFDF91CF911F910F91FF9090
:102BA000EF90DF90CF900C94A7124F70C8010E9455
:102BB000040A28960FB6F894DEBF0FBECDBFDF9192
:102BC000CF911F910F91FF90EF90DF90CF900C94D9
:102BD00091194F70C80128960FB6F894DEBF0FBE4A
:102BE000CDBFDF91CF911F910F91FF90EF90DF90BC
:102BF000CF900C94EC0928960FB6F894DEBF0FBE68
:102C0000CDBFDF91CF911F910F91FF90EF90DF909B
:102C1000CF9008950E94391C0E940E1C0E94551CE2
:102C20000E9429230E94FB2180E090E00E94B410C2
:102C300080E090E00C94CA100E94291C0C940A16A3
:102C40000E943F1B292F22952F7030E02C30310538
:102C50004CF42A3031056CF4225031092230310510
:102C600070F407C02C30310531F02F30310519F0E8
:102C700006C081E0089593FB882780F9089580E0DD
:102C80000895CF93DF9300D000D01F92CDB7DEB769
:102C90000F900F900F900F900F90DF91CF910895AC
:102CA000CF93DF9300D000D000D0CDB7DEB726960B
:102CB0000FB6F894DEBF0FBECDBFDF91CF91089560
:102CC0001F93CF93DF93C0915B0116E080915C016D
:102CD000C81799F0D0E01C9FF0011D9FF00D112442
:102CE000E35AFE4F408151816281738184819581D5
:102CF0000E9450162196C770E9CFDF91CF911F91A6
:102D0000089540918D0150918E0160918F017091D5
:102D1000900180919101909192010C945016CF9363
:102D20008091920182958F7009F05FC080918F0130
:102D3000882309F45AC020915B01A0915C01609145
:102D40008D0170918E01809190019091910131E0FF
:102D50006F3F09F030E0B32FC6E02A1709F445C0F1
:102D6000009721F07F3F21F44B2F03C041E001C0C9
:102D700040E030E040FD35C0C29FF001C39FF00D40
:102D80001124E35AFE4F418174132BC04081641318
:102D900028C04281411125C04381548148175907F9
:102DA00010F441505109481B590B483C5105C8F4D7
:102DB000809192018F7080618093920186E0829F62
:102DC000F001839FF00D1124EE59FE4F80818F702A
:102DD000806180838DE891E00E940413CF910C9470
:102DE00060162F5F3F4F2770B8CFCF910895CF92D5
:102DF000DF92EF92FF920F931F93CF93DF93CDB7A4
:102E0000DEB762970FB6F894DEBF0FBECDBF8C0160
:102E100085E0F801DE011D9601900D928A95E1F79B
:102E2000D8014C9111965C91119712966C91129762
:102E30001396ED90FC90149770918D01E0918E01A6
:102E400020919001309191012115310531F0EF3F32
:102E500031F481E07F3F19F403C081E001C080E0DC
:102E6000B82FB170CB2E80FD6CC1D0908F01DD20CA
:102E700009F4F5C0F0919201E216F30638F0C701AB
:102E8000821B930B883C910548F09BC020953095A0
:102E90002E0D3F1D283C310508F093C08F2F807FF9
:102EA00009F052C0E51314C0741312C0D62E61117C
:102EB0000FC0FF70F061F09392010E9481168DE8BF
:102EC00091E00E94041380919201F80185836CC106
:102ED000EF2831F05F3F31F481E04F3F19F403C038
:102EE00081E001C080E080FD03C081E0862701C051
:102EF00080E0F82FF170FF2E80FF1CC080915B01F5
:102F000020915C0136E0821709F428C190E0389FD7
:102F1000F001399FF00D1124E35AFE4F71815713D0
:102F200006C07081471303C07281671303C0019606
:102F30008770E9CFD62E662309F436C180919201BD
:102F400081608093920153C0E51308C0741306C0DA
:102F5000611104C0D8011596FC93AEC04D875E8701
:102F60008D859E856A8B0E9420166A89882329F1A7
:102F7000D62E662311F120919201822F82958F70B7
:102F800090E002970CF460C080918D0190918E01C9
:102F900098878F831986FB86EA862C87CE01079651
:102FA00051C0E51731F14D875E878D859E856A8B0F
:102FB0000E9420166A8981112EC0C8010E94041344
:102FC000A4C08F2F807F69F77E2DF98AE88A8989CE
:102FD0000E9441168DE891E00E940413EDE8F1E0B3
:102FE00086E0DF011D928A95E9F70E948116D12CB7
:102FF000DBC07413D8CF6111D6CFD8011596FC93DE
:10300000C8010E940413EDE8F1E086E0DF011D92A3
:103010008A95E9F7C9C0D62E662379F220919201EC
:10302000822F82958F7090E0029774F080918D01CD
:1030300090918E019A8389831B82FD82EC822E837C
:10304000CE0101960E94041386E0F801ADE8B1E0DC
:1030500001900D928A95E1F70E948F166FC0E216DB
:10306000F30628F0C701821B930B9C0104C0209536
:1030700030952E0D3F1D283C310508F052C0D62E4C
:10308000662309F49ACFE5132CC074132AC08091EB
:10309000920180FD1DC0982F92959F70C9F0D801B4
:1030A00015968C9315979F3039F09F5F9295907F7E
:1030B0008F70892B15968C93C8010E94041386E0AB
:1030C000F801ADE8B1E001900D928A95E1F736C0C4
:1030D00086E0F801ADE8B1E001900D928A95E1F744
:1030E00063C04D875E878D859E850E94201688234C
:1030F00079F086E0F801ADE8B1E001900D928A9593
:10310000E1F70E948F160E948116DD24D3944CC0F3
:1031100080919201816080939201C8010E94041302
:1031200043C07E2DF98AE88A89890E944116EDE81C
:10313000F1E086E0DF011D928A95E9F70E94811691
:1031400033C0662309F439CF4D875E878D859E8510
:103150000E942016882309F430CFCBCF4D875E879D
:103160008D859E850E943F1B292F22952F7030E070
:10317000223031052CF49F7041F0811106C00CC043
:10318000243031052CF49F7049F4805E883020F0A3
:10319000C8010E940413CF2CDC2C06C0D801159660
:1031A0009C91907F91F7F8CF8D2D62960FB6F89491
:1031B000DEBF0FBECDBFDF91CF911F910F91FF906A
:1031C000EF90DF90CF9008951F93CF93DF93CDB70B
:1031D000DEB72C970FB6F894DEBF0FBECDBF4F837E
:1031E000588769877A878B879C87CE0107960E94CC
:1031F000F7168823C1F02F8138858A859B85892B16
:1032000031F03F3F11F080E003C02F3FE1F781E054
:10321000811147C04F81588569857A858B859C854A
:103220000E9450163EC086E0FE013796DE011196E0
:1032300001900D928A95E1F7FF81E8854A855B85CB
:103240004115510531F0EF3F31F481E0FF3F19F4B2
:1032500003C081E001C080E080FD23C020915C01BB
:1032600030E0C90101968770992760915B0170E099
:1032700086179707F1F1F983EA835D834C8396E023
:10328000929FD001939FB00D1124A35ABE4FFE010F
:10329000319601900D929A95E1F780935C010E941E
:1032A000601616E080915B0190915C01891779F1BD
:1032B000189FC0011124835A9E4F0E94F71688233D
:1032C00031F1E0915B011E9FF0011124E35AFE4FA2
:1032D0004081518162817381848195810E94501661
:1032E00080915B0190E001968770992780935B0144
:1032F000D9CF0E941C1610925C0110925B01EDE880
:10330000F1E086E0DF011D928A95E9F7CACF2C969D
:103310000FB6F894DEBF0FBECDBFDF91CF911F91E6
:103320000895EF92FF920F931F93CF93DF939C0129
:10333000009709F46FC0F12CEE24E394E901219683
:10334000F9018491843740F4843008F054C081300E
:1033500081F0823021F15EC0853709F447C0B0F1B9
:103360009CE7980F903708F055C08F770E94A712FE
:1033700044C089010E5F1F4FFE01849190E2980FB7
:10338000983050F48770FE2D01C0FF0F8A95EAF740
:103390008F2F0E942C1C15C00E94DF1112C08901C2
:1033A0000E5F1F4FFE01849190E2980F983058F401
:1033B0008770FE2D01C0FF0F8A95EAF78F2F0E94BC
:1033C000321CE8011AC00E94A712FBCF2E5F3F4FAC
:1033D000FE01C491CC2341F08FE99FE00197F1F702
:1033E00000C00000C150F6CFE90107C0FE01F49013
:1033F000E901229602C00E94DF118F2D882341F03F
:10340000EFE9FFE03197F1F700C000008150F6CFFF
:103410009E0194CFDF91CF911F910F91FF90EF907C
:10342000089508956093970170939801809399018E
:1034300090939A010C940A160F931F930091970191
:10344000109198012091990130919A01062B172B28
:10345000282B392B00939701109398012093990101
:1034600030939A011F910F910C940A160F931F939A
:1034700000919701109198012091990130919A0142
:1034800006231723282339230093970110939801CB
:103490002093990130939A011F910F910C940A1671
:1034A0000F931F930091970110919801209199011A
:1034B00030919A010627172728273927009397016B
:1034C000109398012093990130939A011F910F91C5
:1034D0000C940A1610929301109294011092950187
:1034E000109296010C940A1641E050E060E070E002
:1034F00004C0440F551F661F771F8A95D2F740936B
:1035000093015093940160939501709396010C94EC
:103510000A1641E050E060E070E004C0440F551F1F
:10352000661F771F8A95D2F780919301909194013D
:10353000A0919501B0919601842B952BA62BB72BCA
:103540008093930190939401A0939501B093960179
:103550000C940A1641E050E060E070E004C0440FB3
:10356000551F661F771F8A95D2F740955095609535
:1035700070958091930190919401A0919501B091E3
:10358000960184239523A623B723809393019093D8
:103590009401A0939501B09396010C940A1641E012
:1035A00050E060E070E004C0440F551F661F771FB5
:1035B0008A95D2F78091930190919401A091950101
:1035C000B091960184279527A627B727809393016A
:1035D00090939401A0939501B09396010C940A16D0
:1035E0000F931F93009193011091940120919501E5
:1035F00030919601062B172B282B392B0093930122
:103600001093940120939501309396011F910F918F
:103610000C940A160F931F9300919301109194013B
:1036200020919501309196010623172328233923F1
:103630000093930110939401209395013093960188
:103640001F910F910C940A160F931F9300919301F1
:10365000109194012091950130919601062717272A
:103660002827392700939301109394012093950103
:10367000309396011F910F910C940A160895CF92E2
:10368000DF92EF92FF920F931F93CF93DF93EC01A2
:10369000C0909701D0909801E0909901F0909A0124
:1036A0008091930190919401A0919501B091960120
:1036B000C82AD92AEA2AFB2A0FE110E0B701A6019D
:1036C000002E04C076956795579547950A94D2F7D2
:1036D00040FF07C0BE01802F0E941D1D8130910553
:1036E00039F40150110950F7BE0180E00E941D1D00
:1036F000DF91CF911F910F91FF90EF90DF90CF90CE
:10370000089590910E01992341F1982F96959695E1
:1037100096959F3088F4E0910F01F0911001E90F28
:10372000F11D877021E030E001C0220F8A95EAF791
:103730008181822B818308959091AE0190FF2DC0ED
:103740001F928F9384E096E09F938F930E94E109EC
:103750000F900F900F900F90089540910F0150918E
:10376000100120E030E09FEFFA01E20FF31F6281C9
:10377000681799F09F3F19F4611101C0922F2F5FD4
:103780003F4F2E30310581F79F3F39F0FA01E90FA5
:10379000F11D97FDFA9582830895089590910E0189
:1037A000992349F1982F9695969596959F3090F488
:1037B000E0910F01F0911001E90FF11D877021E0F8
:1037C00030E001C0220F8A95EAF7209581812823F5
:1037D000218308959091AE0190FF1FC01F928F9397
:1037E00086EE95E09F938F930E94E1090F900F90D2
:1037F0000F900F90089540910F015091100120E01B
:1038000030E0FA01E20FF31F9281981301C0128297
:103810002F5F3F4F2E303105A1F7089581E090E0F2
:10382000E0910F01F0911001E80FF91F108201964D
:1038300080319105A9F708959091AD01982B90934F
:10384000AD01089580959091AD0198239093AD01BD
:1038500008951092AD0108959091AC01982B90932A
:10386000AC01089580959091AC0198239093AC01A0
:1038700008951092AC01089580939B0108951092D1
:103880009B01089540910F015091100120E030E01C
:1038900080E0FA01E20FF31F918191118F5F2F5F9A
:1038A0003F4F2F303105A9F70895E0910F01F091B6
:1038B00010018091AD018083E0910F01F091100122
:1038C00080819091AC01892B808390919B019923F9
:1038D00061F0E0910F01F09110018081892B8083CC
:1038E0000E94421C811110929B0180910F019091C6
:1038F00010010C9464108B3B60F4883A00F5853A13
:10390000A8F4843088F4813009F055C081E090E05B
:103910000895803E08F44FC0883E30F0803F08F4A0
:103920004AC090E09065089590E00895853A09F4C2
:1039300045C0863A09F045C082E890E40895883A87
:1039400009F442C0893A09F442C08A3A09F442C0F3
:103950008B3A09F442C08C3A09F442C08D3A09F41A
:1039600042C0803B09F442C08E3A09F442C08F3A0B
:1039700009F442C0813B09F442C0823B09F442C0D1
:10398000833B09F442C0843B09F442C0853B09F4FF
:1039900042C0863B09F442C0873B09F442C0883BE1
:1039A00009F442C0893B09F442C08A3B09F042C095
:1039B0008AE296E4089580E090E0089581E890E43A
:1039C000089583E890E4089582EE94E4089589EEE2
:1039D00094E408958AEE94E4089585EB94E40895C0
:1039E00086EB94E4089587EB94E408958CEC94E4DA
:1039F00008958DEC94E4089583E895E408958AE8A9
:103A000095E4089582E995E4089584E995E408959C
:103A100081E296E4089583E296E4089584E296E4D0
:103A2000089585E296E4089586E296E4089587E293
:103A300096E4089580E094E408950E94100A803E80
:103A4000A8F4803C00F5813309F45CC038F4893275
:103A500009F452C08A3209F45BC05FC08933B1F007
:103A60008238A1F0853309F441C057C0833E41F14B
:103A700028F4803E99F0823EB9F04FC0863E31F185
:103A8000873E71F14AC00E942D0A08959091C401A9
:103A900090FD02C091FF41C080EE3FC08091C40103
:103AA00080FFFACF89E339C08091C40182FF0CC046
:103AB0008091C40184FF02C080E02FC083EE2DC03E
:103AC0008091C40182FFF4CF82EE27C08091C401AF
:103AD00083FF0AC08091C40184FDEECF87EE1DC034
:103AE0008091C40183FFF6CF86EE17C08091C40198
:103AF00085FF06C089E211C08091C40185FFFACF1D
:103B000085E30BC08091C40186FF06C08AE205C030
:103B10008091C40186FFFACF81E30E947B1C089547
:103B20009093B0018093AF010895CF92DF92EF920E
:103B3000FF920F931F936C01EE24FF24C114D10454
:103B4000E104F10421F46B017C0180E001C080E11B
:103B500033272F2D1E2D0D2D0115110521053105A2
:103B600019F0885F6801790197018601A4E0369514
:103B7000279517950795AA95D1F7011511052105E8
:103B8000310519F08C5F6801790197018601F2E037
:103B90003695279517950795FA95D1F701151105D3
:103BA0002105310519F08E5F68017901B701A60181
:103BB0007695679557954795452B462B472B09F0EA
:103BC0008F5F1F910F91FF90EF90DF90CF9008953E
:103BD0008295982F9C7C96959695837344E0849F5C
:103BE00090011124922B892F8A7A86959575990FC9
:103BF000892B08951F93CF93DF931F92CDB7DEB724
:103C000099830E94E81D182F9981892F0E94E81D31
:103C1000212F30E0322F2227A901482BCA010F9013
:103C2000DF91CF911F91089583FF02C090E601C0FC
:103C300090E48770892B28E130E00FB6F894A895BE
:103C4000209360000FBE8093600083B7817F846003
:103C500083BF83B7816083BF7894889583B78E7F55
:103C600083BF88E10FB6F8948093600010926000E3
:103C70000FBE0895CF930E94EA090E946C0A0E9429
:103C8000EB09C0E08C2F0E942B0B811105C0CF5F88
:103C9000CE30C1F780E001C081E0CF9108950C944F
:103CA0001C1682E084BD93E095BD9AEF97BD80938A
:103CB0006E0008952FB7F8948091B1019091B201F0
:103CC000A091B301B091B4012FBF0895CF92DF92BC
:103CD000EF92FF920F931F932FB7F8944091B10189
:103CE0005091B2016091B3017091B4012FBF6A018C
:103CF0007B01EE24FF248C0120E030E0C016D106C9
:103D0000E206F30610F441505109481B590BCA0151
:103D10001F910F91FF90EF90DF90CF9008951F9229
:103D20000F920FB60F9211248F939F93AF93BF936F
:103D30008091B1019091B201A091B301B091B40111
:103D40000196A11DB11D8093B1019093B201A09382
:103D5000B301B093B401BF91AF919F918F910F9038
:103D60000FBE0F901F901895F89481E08093E000AB
:103D700080E28093D8001092C9008FE19EE4019701
:103D8000F1F700C0000087E090EBDC018093C501F3
:103D90009093C601A093C701B093C8012CE088E1BD
:103DA00090E00FB6F894A895809360000FBE209322
:103DB0006000FFCFEF92FF920F931F93CF93DF939B
:103DC000E82EF12C8F2D0E942B0BC0E0D0E0082FA5
:103DD00010E098010C2E02C0359527950A94E2F761
:103DE00020FD05C02196C630D10599F709C06C2F7A
:103DF0007F2D80E00E94100AE812F4CF81E005C018
:103E0000F3948EE0F812DECF80E0DF91CF911F9126
:103E10000F91FF90EF900895CF93C82F8CE20E94EE
:103E2000DA1E882321F08C2FCF910C94DA1E80E0CB
:103E3000CF910895CF930E946720811102C00E9404
:103E40004D2089E296E00E944809C5E6C15049F03C
:103E50000E946C0A8FE39CE90197F1F700C0000013
:103E6000F5CF82E296E00E94480989E20E940C1F89
:103E7000811111C18AE20E940C1F81110E944D2004
:103E800085E00E940C1F81110E94B41E0E947220C6
:103E90008093AE0187E00E940C1F882399F18BE18B
:103EA0000E940C1F882351F09091AE0191FB88274E
:103EB00080F921E0822780FB91F922C08EE00E94E8
:103EC0000C1F882351F09091AE0192FB882780F956
:103ED00021E0822780FB92F913C080E10E940C1F31
:103EE0009091AE01882341F093FB882780F921E06F
:103EF000822780FB93F904C0892F809580FB90F97D
:103F00009093AE018091AE010E9476200E948420A1
:103F10008093C40180EE0E940C1F882341F08091A1
:103F2000C401982F909590FB80F98093C40189E398
:103F30000E940C1F882359F09091C40191FB88279F
:103F400080F921E0822780FB91F99093C40182EEF1
:103F50000E940C1F882359F09091C40192FB88277E
:103F600080F921E0822780FB92F99093C40186EECC
:103F70000E940C1F882359F09091C40193FB88275D
:103F800080F921E0822780FB93F99093C40183EEAE
:103F90000E940C1F882359F09091C40194FB88273C
:103FA00080F921E0822780FB94F99093C40185E396
:103FB0000E940C1F882359F09091C40195FB88271B
:103FC00080F921E0822780FB95F99093C40181E379
:103FD0000E940C1F882359F09091C40196FB8827FA
:103FE00080F921E0822780FB96F99093C40181E15A
:103FF0000E940C1F882359F09091C40197FB8827D9
:1040000080F921E0822780FB97F99093C401809189
:10401000C4010E9488208091C40187FB882780F911
:1040200080930E0187E20E940C1FC82F8EE10E9430
:104030000C1F8111C2608FE10E940C1F8111C460AE
:1040400080E20E940C1F8111C86081E20E940C1F57
:104050008111C06182E20E940C1F8111C06283E263
:104060000E940C1F8111C06484E20E940C1F8823EF
:1040700011F0C06802C0CC2329F08C2F0E947F2051
:104080006C2F03C00E947B20682F70E080E090E0DE
:10409000CF910C94121ACF9108956DEE7EEF80E0CF
:1040A00090E00E94E92B60E082E090E00E94DB2B30
:1040B00060E083E090E00E94DB2B60E084E090E031
:1040C0000E94DB2B60E085E090E00C94DB2B80E02D
:1040D00090E00E94D52B21E08D3E9E4F09F020E01C
:1040E000822F089582E090E00C94CD2B682F82E01F
:1040F00090E00C94DB2B83E090E00C94CD2B682FA8
:1041000083E090E00C94DB2B84E090E00C94CD2BCA
:10411000682F84E090E00C94DB2B8091B70180FF46
:104120000BC06091140185E0689FB0011124759562
:104130006795759567952AC081FF09C06091140144
:1041400085E0689FB0011124759567951FC082FFB7
:1041500007C06091140185E0689FB001112416C06A
:104160004091B8014423C9F060911301461788F7C4
:104170002091140185E0289F90011124429FC001E5
:10418000439F900D112470E00E949F2B60387105B1
:1041900040F46115710539F002C065E070E0862FCA
:1041A00008958FE7089581E008958091B70180FF19
:1041B00008C06091120170E07595679575956795D7
:1041C00021C081FF06C06091120170E0759567956E
:1041D00019C082FF04C06091120170E010C080918C
:1041E000B8018823C1F0609111018617A0F7909162
:1041F0001201989FC001112470E00E949F2B60382B
:10420000710528F46115710521F0862F08958FE757
:10421000089581E0089561E070E0F4CF803F21F4DB
:104220000E948D20819504C0813F29F40E948D2039
:104230008093BB010895823F21F40E948D208195D7
:1042400004C0833F29F40E948D208093BA01089511
:10425000893F19F40E94D52005C08A3F31F40E949D
:10426000D52081958093BC0108958B3F21F40E9455
:10427000D520819504C08C3F29F40E94D5208093DD
:10428000BD010895843F21F48091B901816017C078
:10429000853F21F48091B901826011C0863F21F4ED
:1042A0008091B90184600BC0873F21F48091B901EE
:1042B000886005C0883F31F48091B90180618093A6
:1042C000B90108958D3F21F48091B70181600BC041
:1042D0008E3F21F48091B701826005C08F3F29F4A1
:1042E0008091B70184608093B7010895803F39F4CD
:1042F0008091BB0187FF6CC01092BB0169C0813FF8
:1043000029F48091BB011816BCF362C09091BA01E8
:10431000823F29F497FF5CC01092BA0159C0833FD5
:1043200019F41916CCF354C0893F41F48091BC01B3
:1043300018160CF04DC01092BC014AC08A3F29F4F7
:104340008091BC0187FF44C0F6CF8B3F39F4809148
:10435000BD0187FF3DC01092BD013AC08C3F29F4DA
:104360008091BD011816BCF333C0843F21F48091C5
:10437000B9018E7F17C0853F21F48091B9018D7FEF
:1043800011C0863F21F48091B9018B7F0BC0873F1C
:1043900021F48091B901877F05C0883F31F4809175
:1043A000B9018F7E8093B90113C08D3F21F48091B4
:1043B000B7018E7F0BC08E3F21F48091B7018D7FB6
:1043C00005C08F3F29F48091B7018B7F8093B7019F
:1043D0008091BA0181110EC08091BB0181110AC088
:1043E0008091BC01811106C08091BD01811102C084
:1043F0001092B80108958091AE0183FF7EC085E6DA
:1044000096E00E9448098091B9011F928F9380E63F
:1044100096E09F938F930E94E1098EE596E00E94BB
:1044200048092091BA01822F992787FD90959F9383
:104430002F938BE596E09F938F930E94E10989E586
:1044400096E00E9448092091BB01822F992787FDA1
:1044500090959F932F9386E596E09F938F930E946C
:10446000E10984E596E00E9448092091BC01822F71
:10447000992787FD90959F932F9381E596E09F93D1
:104480008F930E94E1098FE496E00E9448092091F1
:10449000BD01822F992787FD90959F932F938CE4E0
:1044A00096E09F938F930E94E10989E496E00E9431
:1044B00048098091B8011F928F9386E496E09F93FC
:1044C0008F930E94E10984E496E00E94480980915C
:1044D000B7011F928F9381E496E09F938F930E9480
:1044E000E1098EE396E00E9448098DB79EB74C968D
:1044F0000FB6F8949EBF0FBE8DBF89EB91E00E946E
:10450000A9100E945A1E9093B6018093B501089598
:104510001F93CF93DF938091B5019091B6010E94D4
:10452000661E4091B801442321F02091150130E02E
:1045300006C0209116015AE0259F90011124821790
:10454000930708F482C08091BA011091BB01D09109
:10455000BC01C091BD01811107C0111105C0D1116D
:1045600003C0CC2309F471C04F3F19F04F5F409353
:10457000B801181624F40E948D208093BA0180910E
:10458000BA0187FF05C00E948D2081958093BA01F2
:10459000111624F40E948D208093BB018091BB01F1
:1045A00087FF05C00E948D2081958093BB0160919B
:1045B000BA01662339F11091BB01112319F1772754
:1045C00067FD7095872F972F0E94B02A23E333E36E
:1045D00043E35FE30E94142B0E947D2A6093BA019B
:1045E000612F772767FD7095872F972F0E94B02A3C
:1045F00023E333E343E35FE30E94142B0E947D2A0D
:104600006093BB011D1624F40E94D5208093BC0149
:104610008091BC0187FF05C00E94D52081958093C1
:10462000BC011C1624F40E94D5208093BD0180910A
:10463000BD0187FF05C00E94D52081958093BD01F3
:10464000DF91CF911F910C94FB21DF91CF911F91AE
:104650000895E9EBF1E085E0DF011D928A95E9F725
:104660001092B8011092B70108958FE29BE00E946A
:10467000480982E29BE00E94480985E19BE00C9496
:10468000480982E99AE00E94480985E89AE00E9478
:1046900048098AE69AE00E9448098FE49AE00E945D
:1046A000480987E39AE00E9448098DE19AE00E9458
:1046B00048098FEF99E00E9448098FED99E00E9428
:1046C00048098BEC99E00E94480984EB99E00E942C
:1046D000480988E999E00E9448098AE799E00E9420
:1046E00048098BE599E00E9448098AE399E00E9415
:1046F000480985E099E00E94480980EF98E00E940F
:1047000048091F9285E08F938DEE98E09F938F93D9
:104710000E94E10984EE98E00E9448091F9281E01E
:104720008F9381EE98E09F938F930E94E1098FED24
:1047300098E00E9448098DB79EB708960FB6F89486
:104740009EBF0FBE8DBF82EB98E00C94480983306A
:1047500009F459C028F4813061F0823079F108956C
:10476000853009F49AC008F473C0863009F4BAC0E1
:10477000089520911601862F90E0820F911D8F3FA2
:10478000910520F4620F6093160103C08FEF8093B0
:1047900016018EE897E00E944809809116011F9249
:1047A0008F938BE897E09F938F930E94E1090F907E
:1047B0000F900F900F9089E897E0B8C020911501F5
:1047C000862F90E0820F911D8F3F910520F4620F9C
:1047D0006093150103C08FEF809315018AE797E07E
:1047E0000E944809809115011F928F9387E797E0F7
:1047F0009F938F930E94E1090F900F900F900F905D
:1048000085E797E093C020911401862F90E0820FF6
:10481000911D8F3F910520F4620F6093140103C036
:104820008FEF8093140185E697E00E9448098091FC
:1048300014011F928F9382E697E09F938F930E94BB
:10484000E1090F900F900F900F9080E697E06EC0F7
:1048500020911301862F90E0820F911D8F3F9105CB
:1048600020F4620F6093130103C08FEF8093130154
:104870008EE497E00E944809809113011F928F9364
:104880008BE497E09F938F930E94E1090F900F9024
:104890000F900F9089E497E049C020911201862F74
:1048A00090E0820F911D8F3F910520F4620F60937D
:1048B000120103C08FEF8093120183E397E00E94FF
:1048C0004809809112011F928F9380E397E09F9394
:1048D0008F930E94E1090F900F900F900F908EE23E
:1048E00097E024C020911101862F90E0820F911D46
:1048F0008F3F910520F4620F6093110103C08FEF89
:104900008093110186E197E00E944809809111018E
:104910001F928F9383E197E09F938F930E94E10909
:104920000F900F900F900F9081E197E00C94480941
:10493000833009F44DC028F4813061F0823049F1B0
:104940000895853009F482C008F461C0863009F406
:104950009CC0089580911601681720F4861B8093EF
:10496000160102C01092160185E097E00E944809E6
:10497000809116011F928F9382E097E09F938F930F
:104980000E94E1090F900F900F900F9080E097E048
:104990009AC080911501681720F4861B8093150139
:1049A00002C01092150181EF96E00E9448098091A3
:1049B00015011F928F938EEE96E09F938F930E9426
:1049C000E1090F900F900F900F908CEE96E07BC056
:1049D00080911401681720F4861B8093140102C093
:1049E000109214018CED96E00E9448098091140108
:1049F0001F928F9389ED96E09F938F930E94E10918
:104A00000F900F900F900F9087ED96E05CC0809113
:104A10001301681720F4861B8093130102C01092C3
:104A2000130185EC96E00E944809809113011F92C2
:104A30008F9382EC96E09F938F930E94E1090F90F1
:104A40000F900F900F9080EC96E03DC08091120186
:104A5000681720F4861B8093120102C01092120185
:104A60008AEA96E00E944809809112011F928F9372
:104A700087EA96E09F938F930E94E1090F900F9031
:104A80000F900F9085EA96E01EC080911101681783
:104A900020F4861B8093110102C0109211018DE851
:104AA00096E00E944809809111011F928F938AE835
:104AB00096E09F938F930E94E1090F900F900F90C3
:104AC0000F9088E896E00C944809CF93C82F8EEF9A
:104AD0009AE00E9448096091970170919801809135
:104AE000990190919A010E94951D1F928F932BEF2F
:104AF0003AE03F932F930E94E10986EF9AE00E94EB
:104B000048091F92CF9323EF3AE03F932F930E94DF
:104B1000E10981EF9AE00E94480961E070E080E0DD
:104B200090E004C0660F771F881F991FCA95D2F7BF
:104B30000E94121A8DB79EB708960FB6F8949EBFC2
:104B40000FBE8DBFCF910C941C16CF93482F50E011
:104B5000FA013697E334F10508F0EFC2ED58FF4F44
:104B60000C94B32B8BE991E10E9448090E94372AEB
:104B70000E9458100E94780B41C180E991E10E9487
:104B8000480986E79EE00E9448090E947B201F9208
:104B90008F9383E79EE09F938F930E94E10981E7C3
:104BA0009EE00E9448090E947220C82F8EE59EE078
:104BB0000E9448091F92CF9329E53EE03F932F932F
:104BC0000E94E10987E59EE00E9448098DE49EE08D
:104BD0000E9448098C2F81701F928F932AE43EE037
:104BE0003F932F930E94E10988E49EE00E944809C8
:104BF0008EE39EE00E944809C1FB882780F91F923E
:104C00008F932BE33EE03F932F930E94E10989E3CA
:104C10009EE00E9448098DE29EE00E944809C2FB86
:104C2000882780F91F928F932AE23EE03F932F93CB
:104C30000E94E10988E29EE00E9448098FE19EE01F
:104C40000E944809C3FBCC27C0F91F92CF938CE187
:104C50009EE09F938F930E94E1098AE19EE00E946B
:104C600048090E948420C82F86E09EE00E944809DF
:104C70001F92CF9321E03EE03F932F930E94E109E2
:104C80008FEF9DE00E94480986EE9DE00E94480952
:104C90008C2F81701F928F9323EE3DE03F932F93D3
:104CA0000E94E1098DB79EB780960FB6F8949EBF1B
:104CB0000FBE8DBF81EE9DE00E9448098AEC9DE009
:104CC0000E944809C1FB882780F91F928F9327EC27
:104CD0003DE03F932F930E94E10985EC9DE00E9407
:104CE000480983EB9DE00E944809C2FB882780F9B0
:104CF0001F928F9320EB3DE03F932F930E94E10999
:104D00008EEA9DE00E9448098CE99DE00E944809D6
:104D1000C3FB882780F91F928F9329E93DE03F93D9
:104D20002F930E94E10987E99DE00E9448098DE8E0
:104D30009DE00E944809C4FB882780F91F928F9349
:104D40002AE83DE03F932F930E94E10988E89DE027
:104D50000E94480986E79DE00E944809C5FB882714
:104D600080F91F928F9323E73DE03F932F930E949A
:104D7000E10981E79DE00E94480985E59DE00E94E8
:104D80004809C6FB882780F91F928F9322E53DE0F2
:104D90003F932F930E94E10980E59DE00E9448091E
:104DA00088E49DE00E944809C7FBCC27C0F91F9208
:104DB000CF9385E49DE09F938F930E94E10983E464
:104DC0009DE00E9448098DB79EB74C960FB6F894A7
:104DD0009EBF0FBE8DBF12C00E945310892B81F061
:104DE0000E9453109093C0018093BF0180E090E037
:104DF0000E944E1087E891E10E944809C1E0A2C1DB
:104E00008091BF019091C0010E944E108CE791E10A
:104E1000F3CF87E29DE00E94480980E19DE00E9477
:104E2000480988EF9CE00E94480980EE9CE00E94BF
:104E3000480986EC9CE00E9448098FEA9CE00E94A9
:104E4000480985E99CE00E94480985E79CE00E94AA
:104E500048098FE59CE00E9448098EE49CE00E948E
:104E6000480986E39CE00E94480986E29CE00E9493
:104E700048098CE09CE00E94480983EF9BE00E9477
:104E800048098AED9BE00E94480981EC9BE00E9462
:104E9000480988EA9BE00E94480987E89BE00E9455
:104EA000480985E69BE00E9448098BE49BE0A4CF7B
:104EB0008091AE01817F8E7F8093AE010E94352369
:104EC00087E691E10E94480983E691E10E94480942
:104ED00081E08093BE0192CF0E941C168AE491E18A
:104EE0000E9448099FEF23ED80E3915020408040CD
:104EF000E1F700C000000E94B41E8AE391E17CCF7C
:104F00008091AE01C82FC17080FF09C087E291E196
:104F10000E9448098091AE01817F8E7F44C085E167
:104F200091E10E9448098091AE0181608093AE01B9
:104F300065CF8091AE0181FBCC27C0F991E0C927F4
:104F4000C0FB81F98093AE01CC2319F08CEF90E186
:104F500025C082EE90E150CF8091AE0182FBCC273C
:104F6000C0F991E0C927C0FB82F98093AE01CC2340
:104F700019F087EC90E112C08BEA90E13DCF80916F
:104F8000AE0183FBCC27C0F991E0C927C0FB83F9B0
:104F90008093AE01CC2351F083E990E10E9448094F
:104FA0008091AE0181608093AE01CCC08AE790E130
:104FB00023CF83E690E10E94480989E390E10E94B3
:104FC000480980E090E10E94480989ED9FE00E9435
:104FD000480985E99FE00E9448098AE69FE00CCFD6
:104FE0008091B1019091B201A091B301B091B4014F
:104FF000BF93AF939F938F9386E59FE09F938F938B
:105000000E94E1090F900F900F900F900F900F905A
:10501000F5CE80E49FE00E9448090E9458101F923C
:105020008F9386E29FE09F938F930E94E109809186
:105030000C011F928F938FE09FE09F938F930E94AC
:10504000E10980910B011F928F938CEF9EE09F935B
:105050008F930E94E1098091E0001F928F9381EF6E
:105060009EE09F938F930E94E1098091E2001F923E
:105070008F9386EE9EE09F938F930E94E10980912B
:10508000E1001F928F938BED9EE09F938F930E9480
:10509000E10980913E011F928F9384EC9EE09F93E3
:1050A0008F930E94E10980913F011F928F9387EABD
:1050B0009EE09F938F930E94E1098DB79EB78096E3
:1050C0000FB6F8949EBF0FBE8DBF98CE0E941C16DF
:1050D000C0910E0181E0C827C0930E01CC2329F0B6
:1050E00088E99EE00E9448092DC088E89EE084CEB1
:1050F00080914201882339F080914301882319F07F
:105100000E94160D7BCE81E890E00E94B41080E0F2
:1051100090E00E94B4109FEF29E688E19150204072
:105120008040E1F700C0000069CE80E003C08D51EF
:1051300001C089530E94652561CE86E89EE00E94E9
:105140004809C0E08C2FCF91089580E0089580E059
:105150000895CF93C82F8091BE01813071F020F067
:10516000823009F44EC05DC1A0910F01B0911001D1
:105170008C91823209F057C107C0A0910F01B09104
:1051800010018C91823249F48C2F0E94A528811144
:1051900035C08C2F0E94A52532C08C2F0E94A728D5
:1051A00081112CC0C431F1F090F4CB30A1F0C031AA
:1051B00001F50E94412380EC9AE00E9448098CEBA3
:1051C0009AE00E94480982E08093BE0117C0C9326C
:1051D00049F0C83371F40E9435238DEE9AE00E94A5
:1051E00048090CC089ED9AE00E9448091092BE015E
:1051F0001CC18AEB9AE00E94480917C181E08170C6
:1052000016C1C83228F5CE3108F0C0C0CB30A1F1AC
:10521000D0F4C73009F0E8C08EE18093160182E334
:10522000809315018AE08093140184E18093130137
:1052300088E08093120188E28093110187E698E06C
:105240000E944809D6C0C33141F1C431C1F0CCC07D
:10525000CB3409F4BEC028F4C93289F0C83361F0F8
:10526000C3C0C13509F4B3C0C23509F4AEC0CE34F1
:1052700009F0BAC06AE0B3C00E944123BAC01092DC
:10528000C1018AE998E00E94480986E998E00E94F5
:10529000480981E08093BE01CAC08AE398E00E9479
:1052A000480985E298E00E944809809116011F9202
:1052B0008F9382E298E09F938F930E94E10980E2AE
:1052C00098E00E9448098BE098E00E94480980918C
:1052D00015011F928F9388E098E09F938F930E940F
:1052E000E10986E098E00E94480984EF97E00E9477
:1052F0004809809114011F928F9381EF97E09F934B
:105300008F930E94E1098FEE97E00E9448098BED90
:1053100097E00E944809809113011F928F9388EDB6
:1053200097E09F938F930E94E10986ED97E00E949A
:1053300048098EEB97E00E944809809112011F9264
:105340008F938BEB97E09F938F930E94E10989EBFA
:1053500097E00E9448098FE997E00E9448098091F0
:1053600011011F928F938CE997E09F938F930E9476
:10537000E1098AE997E00E9448098DB79EB74896EF
:105380000FB6F8949EBF0FBE8DBF33C0CE51EC2F29
:10539000F0E0E95EFE4F80818093C10181E898E0F2
:1053A0000E9448098091C1011F928F938EE798E077
:1053B0009F938F930E94E1098CE798E00E9448092F
:1053C0000F900F900F900F9014C061E003C061E048
:1053D00006C06AE08091C1010E94A7230AC08091A3
:1053E000C1010E94982405C085E698E00E94480902
:1053F00016C083E698E00E9448098091C1011F927F
:105400008F9380E698E09F938F930E94E1098DE54A
:1054100098E00E9448090F900F900F900F9081E044
:1054200006C01092BE0180E002C080E0E8CECF91BD
:105430000895E1E8F0E08081886080838081816068
:1054400080838FB7F89493E09093890090ED9093C8
:1054500088008FBF0895EFE6F0E08081826080834E
:105460000895EFE6F0E080818D7F80830895EFE678
:10547000F0E0808192E08927808308951F920F9247
:105480000FB60F9211242F933F934F935F936F9317
:105490007F938F939F93AF93BF93EF93FF938091ED
:1054A000C2019091C30101969093C3018093C20100
:1054B000811103C082E00E94780BE091C301E69560
:1054C000E695F0E0E555FE4EE4918091C2018E1321
:1054D00003C080E00E94780BFF91EF91BF91AF91E4
:1054E0009F918F917F916F915F914F913F912F91FC
:1054F0000F900FBE0F901F90189504D06894B111B3
:105500008DC0089570D088F09F5790F0B92F9927DB
:10551000B751A0F0D1F0660F771F881F991F1AF0BE
:10552000BA95C9F712C0B13081F077D0B1E00895D3
:1055300074C0672F782F8827B85F39F0B93FCCF354
:10554000869577956795B395D9F73EF490958095B4
:10555000709561957F4F8F4F9F4F0895E89409C0D4
:1055600097FB3EF490958095709561957F4F8F4F96
:105570009F4F9923A9F0F92F96E9BB279395F695AC
:10558000879577956795B795F111F8CFFAF4BB0F2A
:1055900011F460FF1BC06F5F7F4F8F4F9F4F16C08E
:1055A000882311F096E911C0772321F09EE8872F18
:1055B000762F05C0662371F096E8862F70E060E0D4
:1055C0002AF09A95660F771F881FDAF7880F96954D
:1055D000879597F9089557FD9058440F551F59F036
:1055E0005F3F71F04795880F97FB991F61F09F3FD0
:1055F00079F087950895121613061406551FF2CFF9
:105600004695F1DF08C0161617061806991FF1CF48
:1056100086957105610508940895E894BB2766276F
:105620007727CB0197F908950BD078C069D028F07F
:105630006ED018F0952309F05AC05FC01124EECF48
:10564000CADFA0F3959FD1F3950F50E0551F629FDD
:10565000F001729FBB27F00DB11D639FAA27F00DCB
:10566000B11DAA1F649F6627B00DA11D661F829FF2
:105670002227B00DA11D621F739FB00DA11D621FD7
:10568000839FA00D611D221F749F3327A00D611DF4
:10569000231F849F600D211D822F762F6A2F1124D6
:1056A0009F5750408AF0E1F088234AF0EE0FFF1F29
:1056B000BB1F661F771F881F91505040A9F79E3F60
:1056C000510570F014C0AACF5F3FECF3983EDCF3B5
:1056D000869577956795B795F795E7959F5FC1F79D
:1056E000FE2B880F911D9695879597F9089597F948
:1056F0009F6780E870E060E008959FEF80EC089578
:1057000000240A94161617061806090608950024A0
:105710000A9412161306140605060895092E03941A
:10572000000C11F4882352F0BB0F40F4BF2B11F48E
:1057300060FF04C06F5F7F4F8F4F9F4F089597FBAF
:10574000072E16F4009407D077FD09D00E94B92BDC
:1057500007FC05D03EF4909581959F4F0895709574
:1057600061957F4F0895EE0FFF1F0590F491E02D96
:105770000994AA1BBB1B51E107C0AA1FBB1FA61798
:10578000B70710F0A61BB70B881F991F5A95A9F7EA
:1057900080959095BC01CD010895F999FECF92BDF9
:1057A00081BDF89A992780B50895A8E1B0E042E05C
:1057B00050E00C94F02B262FF999FECF1FBA92BD22
:1057C00081BD20BD0FB6F894FA9AF99A0FBE0196E2
:1057D00008950E94DB2B272F0C94DC2BDC01CB01DE
:1057E000FC01F999FECF06C0F2BDE1BDF89A3196F1
:1057F00000B40D9241505040B8F70895F894FFCF8F
:1058000005E30BF50BEA0BE80BE60B7D0101019CB0
:10581000012808140A321E010203040506070809BC
:02582000000086
:00000001FF
